:020000040800F2
:100000005007002089010008F9270008FD1A0008A0
:10001000F5270008710300082D2E000800000000DD
:10002000000000000000000000000000192D000882
:100030008103000800000000152D00081D2D000898
:10004000A3010008A3010008A3010008A301000800
:10005000A3010008A3010008A3010008A3010008F0
:10006000A3010008A3010008A3010008750300080C
:10007000A3010008A3010008A3010008A3010008D0
:10008000A3010008A3010008A3010008A3010008C0
:10009000A3010008A3010008A3010008A3010008B0
:1000A000A3010008A3010008A3010008A3010008A0
:1000B000212E0008A3010008A3010008A3010008E5
:1000C000A3010008A3010008A3010008A301000880
:1000D000A3010008A3010008A3010008A301000870
:1000E000A3010008A3010008A301000800F002F822
:1000F00000F03AF80AA090E8000C82448344AAF188
:100100000107DA4501D100F02FF8AFF2090EBAE885
:100110000F0013F0010F18BFFB1A43F0010318473B
:10012000D02D0000F02D0000103A24BF78C878C10F
:10013000FAD8520724BF30C830C144BF04680C60ED
:10014000704700000023002400250026103A28BF35
:1001500078C1FBD8520728BF30C148BF0B60704739
:100160001FB51FBD10B510BD00F031F81146FFF7E7
:10017000F7FF02F05DFE00F04FF803B4FFF7F2FF67
:1001800003BC00F057F800000948804709480047C1
:10019000FEE7FEE7FEE7FEE7FEE7FEE7FEE7FEE737
:1001A000FEE7FEE704480549054A064B7047000094
:1001B000212D0008ED00000850010020500700200C
:1001C0005003002050030020704770477047754669
:1001D00000F02CF8AE4605006946534620F00700B3
:1001E000854618B020B5FFF7DDFFBDE820404FF091
:1001F00000064FF000074FF000084FF0000BAC4630
:10020000ACE8C009ACE8C009ACE8C009ACE8C0097A
:1002100021F007018D46704710B50446AFF300800A
:100220002046BDE81040FFF7A8BF00000048704717
:100230001800002001491820ABBEFEE7260002008E
:10024000704700000146406A826A12F0500F03D0E6
:10025000006A026B084610470168826A42F4007225
:100260008262896801F46021B1F5602F01D1017BC0
:1002700011B100F057B900BF816A21F48071816229
:10028000816AC90448BF00F04DB9816A41F001019B
:10029000816200F047B90000406A816A41F0400184
:1002A0008162C16A41F00401C16200F03FB90000FF
:1002B000406A00F039B90000B0B582B004460020B1
:1002C000019021688A68D2074FD1886840F0010008
:1002D000886040F21400C2F2000000684DF68361AD
:1002E000C4F21B31A0FB0101880C01900198A0B160
:1002F000019801380190019878B101980138019076
:10030000019850B1019801380190019828B10198E5
:100310000138019001980028EAD100F021FD216800
:100320008968C9071CD1054603E000BF8068C00783
:100330001AD100F015FD411B20680329F6D381680E
:10034000C907F3D1A06A40F01000A062E06A40F053
:100350000100E062002084F82400012002B0B0BD5A
:10036000002002B0B0BD00BF002002B0B0BD000050
:10037000FEE7000040F2BC00C2F2000000F064BAE8
:1003800070470000EFF3108072B600BFFEE7000078
:1003900010B581B00022009290F82420012A03D1E8
:1003A0000221084601B010BD4B680122062B80F8DF
:1003B000242015D8026803EB8303A3F1050E1F2345
:1003C000D2F834C003FA0EF40B682CEA040C03FADA
:1003D0000EF444EA0C045463092B17D937E000BF2C
:1003E00002680C2B20D803EB8303A3F123041F2303
:1003F000D2F830C003FA04FE0B682CEA0E0C03FAA4
:1004000004F444EA0C041463092B20D8D2F810C079
:1004100003EB4303072489689C402CEA04049940B9
:1004200021431161002136E003EB8303A3F1410472
:100430001F23D2F82CC003FA04FE0B682CEA0E0C22
:1004400003FA04F444EA0C04D462092BDED903EB6A
:100450004304D2F80CC0A4F11E0E0724896804FAE4
:100460000EF42CEA040401FA0EF1214323F00104F6
:10047000102CD1600ED142F20841C4F20101A1F169
:100480000804A2420ED0816A41F02001816201215C
:1004900001E000BF0021002280F82420084601B0BE
:1004A00010BD00BF0A68120230D40A68102B42F453
:1004B00000020A602CD140F21401C2F20001096866
:1004C0004DF68362C4F21B32A1FB0212910C01EBC8
:1004D0008101490000910099E1B100990139009131
:1004E0000099C9B10099013900910099B1B1009901
:1004F00001390091009999B1009901390091009951
:1005000000294FF00001E8D1C5E700BF0021C2E794
:100510000021C0E70021BEE70021BCE70021BAE7C7
:100520000021B8E7704700007047000070470000E6
:10053000B0B5002800F0A8800446806A20B1216888
:100540008868C0070BD114E00020E06284F8240022
:10055000204600F09BF821688868C00709D08868A9
:1005600020F00100886000F0FBFB21688A68D20758
:1005700026D1A06AC0063AD4A06A41F20212904382
:100580000230A062E069D4E9013240EA030C531E54
:10059000B3FA83F35D091346B2F5807F18BF2B02CF
:1005A000207D257B01284CEA450030D135B3A56A72
:1005B00045F02005A562E56A45F00105E56226E003
:1005C000054602E08868C007D3D000F0C9FB401B95
:1005D00021680328F6D38868C007F3D0A06A40F0EA
:1005E0001000A062E06A40F00100E062A06AA06A28
:1005F00040F01000A0620120B0BD00BFD4F818C0C8
:100600004EF60005CFF6FF7505EB4C352B434D68D4
:10061000B2F5807F25F4694543EA05034B608B689A
:100620004FF2FD75CFF6E17503EA050343EA0003D7
:100630008B6001D0012A07D122690023CFF6F07325
:1006400003EB025201E000BF0022CB6A23F47003E7
:100650001A43CA62896840F6FE62CFF61F721140E3
:10066000814207D10020E062A16A012262F3010108
:10067000A162B0BDA06A40F0100020F00200A062AC
:10068000E06A40F00100E0620120B0BD70B586B0C4
:10069000044640F60000C4F20100216800F5E05273
:1006A000002691420596049602D006B070BD00BFA8
:1006B00041F21801C4F202010A6842F400720A60B1
:1006C0000A6802F400720192019A0A6842F0040278
:1006D0000A60096801F00401019101990C2102915D
:1006E0000321039102A900F025FA40F2BC0508207D
:1006F000C2F20005C4F202004FF48072C5E90006A0
:1007000005F1100080214FF480634FF0200C80E849
:100710000C102846C5E90261EE6100F065F9002879
:1007200018BFFFF72FFE25626C6206B070BD000097
:1007300070B515460446006842F60002C4F2010294
:1007400090420E4605D042F20041C4F201018842B7
:1007500009D142F20440C4F20100006810F4702F85
:100760001CBF012070BD94F82400012804BF0220A2
:1007700070BD012084F824002046FFF79DFD18B1CC
:10078000002184F8241070BD42F204402168A26A5E
:10079000C4F2010040F601739A4300F57F7302F53D
:1007A00080729942A26243D0A06A20F48010A062B5
:1007B0004868400504D5A06A012262F30D30A062AA
:1007C000A26A0020D2044FF0000244BFE26A22F085
:1007D0000602E26284F82400206A40F24522C0F654
:1007E000000240F2B12340F2992C00F1280EC0F62D
:1007F0000003C0F6000C8EE80C106FF002020A60D5
:100800008A682B4642F480728A604C31324600F08E
:100810002FF92068816801F460228168B2F5602FA9
:100820000CBF41F4A00141F480118160002070BD33
:10083000026812F4702FB7D0A26A42F48012A2624A
:1008400000684005BCD5B6E710B5D0E90FCE016809
:10085000DCF800300A6823FA0EF35C072AD512F0A0
:10086000040427D00A68920603D40A6822F004021E
:100870000A602F22C4F20202914240F20402C4F242
:1008800002025BDD3023C4F20203994272D044239A
:10089000C4F20203994273D05823C4F2020399426E
:1008A00040F07A804FF480231360C16A002940F041
:1008B00098806FE09C0727D512F0020424D00A68C4
:1008C000920606D40A6822F00A020A60012280F821
:1008D00021202F22C4F20202914240F20402C4F20B
:1008E00002023BDD3023C4F20203994260D044236C
:1008F000C4F2020399425FD05823C4F20203994222
:1009000060D14FF4003365E01B0743D512F00802B5
:1009100008BF10BD0A6822F00E020A60012101FA28
:100920000EF2CCF80420816380F82110016B0022C4
:10093000002980F8202054D12CE000BF0823C4F205
:100940000203994222D01C23C4F20203994223D10C
:1009500040231360C16A002943D11BE00823C4F27D
:10096000020399422CD01C23C4F20203994229D1DC
:1009700020232FE04FF480631360C16A89BB09E034
:100980004FF480431360C16A59BB03E00423136032
:10099000C16A31BB10BD00BF02F168044FF0806333
:1009A000A14208BF4FF480031360C16AC9B9F1E7DF
:1009B0004FF400730EE000BF4FF400530AE000BF95
:1009C000022307E002F168044FF00073A14208BF60
:1009D0004FF400131360816A0022002980F8202060
:1009E000D8D0BDE810400847014600284FF001006C
:1009F00008BF70472DE9F043D1F800C04FF6F873F7
:100A0000CBF6FD734CF6CD426344CCF6CC42A3FB4F
:100A100002236FF0030707EA93030027C4F20207DB
:100A200001F10C09C1E90F730223D1E9012E99E804
:100A30007002D1F81C8081F82130DCF8003043F6D8
:100A4000F077BB431A4342EA0E0222432A43324361
:100A500042EA090242EA0802CCF8002000228A6336
:100A600081F8210081F820200020BDE8F043704784
:100A7000F0B590F820C0BCF1010F32D04FF0010E5C
:100A800080F820E090F821C0BCF1010F26D14FF092
:100A9000020C80F821C04FF0000CC0F838C0D0E93B
:100AA00000C4C56AC66BDCF80070102C27F0010783
:100AB000CCF80070006C0EFA00F070600846CCF8BC
:100AC000043004BF10460A46CCF80800CCF80C20CD
:100AD000DCF8000045B140F00E000DE0002180F888
:100AE00020100220F0BD00BF20F00400CCF8000070
:100AF000DCF8000040F00A00CCF80000DCF8000050
:100B000040F00100CCF800000020F0BDB0B5044674
:100B100000F026F9054640F20000C2F2000000781D
:100B2000611C18BF044400BF00F01AF9401BA0422A
:100B3000FAD3B0BD2DE9F04F82B041F20042C4F2C9
:100B400001020E680423904208BF0323002E009385
:100B500000F0F68040F2004C4FF6FF7E0022C4F217
:100B6000010C0124C1F2100E4FF0000A4FF00009F1
:100B700047E000BF012502F00C040F27A7402BEA35
:100B8000070705FA04F43C4343F82640D1F804B0C3
:100B900040F20C455FEACB23DCF8083054BF23EA6F
:100BA000080343EA0803C4F20105CCF808302B68B7
:100BB0005FEA8B2454BF23EA080343EA08032B604F
:100BC0005FEA8B34DCF8043054BF23EA080343EABD
:100BD00008035FEACB34CCF80430DCF800304FF087
:100BE000010454BF23EA080343EA0803CCF80030A9
:100BF0000E680AF1010A36FA0AF302F1040200F063
:100C00009F8004FA0AF816EA080FF1D04B68734582
:100C100012DC122B56D8DFE803F0350B4549555549
:100C200055555555555555555555554D510000BFC0
:100C3000D1F80C9046E000BF4FF6FF75C1F22105D8
:100C4000AB420FDC0025C1F21105AB421AD00025E2
:100C5000C1F21205AB4215D00025C1F22105AB420D
:100C600010D02FE00025C1F22205AB420AD00025AA
:100C7000C1F23105AB4205D00025C1F23205AB42CD
:100C800020D100BF8B684BB1012B14BFC0F814807A
:100C9000C0F810804FF0080914E000BF4FF00409BD
:100CA00010E000BFCB6803F108090BE04FF000092A
:100CB00008E000BFCB6803F1040903E0CB6803F14F
:100CC0000C0900BF13460546BAF1080F24BF203BAC
:100CD00004352E680F279F40BE4309FA03F33343C0
:100CE0002B60CB79DB067FF583AF41F21804C4F2A9
:100CF000020423684FEA9A0643F001032360236845
:100D000040F6000403F001030193019BACF57E73F0
:100D100053F826B0C4F20104A0420FD040F60044BC
:100D2000C4F20104A0423FF425AF41F20004C4F232
:100D30000104009DA04208BF02251CE700251AE718
:100D400002B0BDE8F08F00008068084018BF0120A5
:100D500070470000002A08BF0904016170470000C5
:100D600040F24810C2F200000068704740F20000F4
:100D700040F24811C2F20000C2F2000100780A6895
:100D8000104408607047000080B542F20000C4F2D1
:100D90000200016841F010010160032000F08AF8B0
:100DA0000F2000F005F800F027F8002080BD0000BB
:100DB00070B540F20006C2F2000640F2140132782B
:100DC000C2F200014FF47A730968B3FBF2F20446F1
:100DD000B1FBF2F1084600F0BDFB0F2C4FF001050E
:100DE00008D838B94FF0FF3021460022002500F026
:100DF00035F87460284670BD82B041F21800C4F224
:100E000002000168022241F001010160016801F065
:100E1000010101910199416841F0805141604068B0
:100E200000F08050009000980420C4F20100016896
:100E300062F31A61016002B070470000002848BFE9
:100E4000704700F01F01012202FA01F14EF2001278
:100E50004009CEF2000242F82010704710B54EF65D
:100E60000C5CCEF2000CDCF80030C3F3022E8EF0E6
:100E70000704042C28BF0424BEF103034FF0FF3EF7
:100E80000EFA04F438BF0023A14399400EFA03F38D
:100E90009A43114300F00F02043A624409010C32F4
:100EA00000F16043B0F1FF3FC8BF03F56442117029
:100EB00010BD00004EF60C51CEF200010A684FF64C
:100EC000FF031A4060F30A2242F0806040F0FD7098
:100ED000086070472DE9F04182B00446007841F285
:100EE0001C06C007C4F202064AD0306810F08058D1
:100EF00008D1306840F080503060306800F0805099
:100F00000190019847F20007C4F200073868C00555
:100F100012D4386840F480703860FFF721FF05462E
:100F20003868C00508D4FFF71BFF401B6428F7D9B9
:100F3000032002B0BDE8F081706810F4407012D058
:100F4000616801F4407188420DD0706840F24042FF
:100F5000C4F24222012320F4407113600023C00731
:100F6000136071602AD17068616820F44070084392
:100F7000B8F1000F706003D1306820F0805030600D
:100F80002068810707D556F8181CA26821F4404153
:100F9000114346F8181CC00604D4002002B0BDE876
:100FA000F08100BF56F8180CE16820F48000084377
:100FB00046F8180C002002B0BDE8F081FFF7D0FE23
:100FC000054641F2883700BF70688007CBD4FFF731
:100FD000C7FE401BB8424FF00300F5D9EBE7000015
:100FE0002DE9F04381B0002800F0858042F200082E
:100FF000C4F202080446D8F800000D4600F00700CD
:1010000088420CD2D8F8000020F007002843C8F826
:101010000000D8F8000000F00700A8426BD120685B
:1010200041F204098107C4F2020917D5410705D529
:10103000D9F8001041F4E061C9F80010010705D5A6
:10104000D9F8001041F46051C9F80010D9F8001027
:10105000A26821F0F0011143C9F80010C00741D186
:10106000D8F8000000F00700A8420CD9D8F800001A
:1010700020F007002843C8F80000D8F8000000F06E
:101080000700A84237D12068410707D5D9F80010DA
:10109000E26821F4E0611143C9F80010000708D5A7
:1010A000D9F80000216920F4605040EAC100C9F875
:1010B0000000D9F8002002F00C00082841F20020BE
:1010C000C0F27A0050D142F6E063C2F38341C0F629
:1010D0000003595CD2033BD440F60010C0F23D003F
:1010E000484341E0606802280AD001282AD159F813
:1010F000041C890308D4012001B0BDE8F08300BFBF
:1011000059F8041C8901F6D5D9F8001021F0030123
:101110000843C9F80000FFF723FE064641F288376E
:10112000D9F80000616800F00C00B0EB810F97D097
:10113000FFF716FE801BB842F2D9032001B0BDE8CC
:10114000F08300BF59F8041C8907D4D5DCE700BF41
:10115000D9F8002042F6DE63C2F34042C0F6000335
:101160009A5C4843B0FBF2F0D9F8001042F6CE6228
:10117000C1F30311C0F60002515C40F2140220FAE0
:1011800001F140F20400C2F200000068C2F2000265
:101190001160FFF70DFE002001B0BDE8F0830000F4
:1011A0002DE9F04182B0002868D00446007841F271
:1011B0000006C007C4F2020625D0706800F00C00DB
:1011C00004281BD0706800F00C00082802D1706859
:1011D000C00313D46068002800F06881B0F5A02F28
:1011E00000F07C81B0F5803F00F07C81306820F415
:1011F00080303060306820F4802076E130688003F1
:1012000001D56068D0B32078800718D5706810F0D9
:101210000C0F07D0706800F00C0008286ED17068C1
:10122000C0036BD43068800702D52069012825D11E
:101230003068616920F0F80040EAC1003060207831
:1012400000071FD42078400732D4E56995B1706853
:1012500000F00C00082840F08F80012D0ED070683F
:10126000216A00F480328A4208D1616A00F4701069
:10127000884203D1002002B0BDE8F081012002B015
:10128000BDE8F081A069002862D00020C4F24220AD
:101290000121C0F88014FFF763FD0546706A8007DE
:1012A00000F18C80FFF75CFD401B0228F6D92AE193
:1012B000F06910F0805808D1F06940F08050F0617A
:1012C000F06900F080500090009847F20007C4F2E7
:1012D00000073868C00529D4386840F48070386049
:1012E000FFF73EFD054600BF3868C0051ED4FFF776
:1012F00037FD401B6428F7D905E100BF20690028AD
:1013000040F20000C4F2422000F08280012101601E
:10131000FFF726FD054600BF306880073FF588AF20
:10132000FFF71EFD401B0228F6D9ECE0E06800281C
:1013300000F08080052800F09780012800F0988058
:10134000306A20F001003062306A20F0040092E040
:101350000020C4F242200021C0F88014FFF700FDF5
:10136000054600BF706A80077FF56CAFFFF7F8FC99
:10137000401B0228F6D9C6E00027C4F2422700200D
:101380003866FFF7EDFC022D05460BD13068800171
:1013900040F1BE80FFF7E4FC401B02284FF0030041
:1013A000F4D968E7306880017FF564AFFFF7D8FCB7
:1013B000401B02284FF00300F4D95CE740F2140010
:1013C000C2F20000006844F6D351C1F26201A0FBF2
:1013D0000101480A019000BF00BF0198411E00288A
:1013E00001913FF42FAF00BF0198411E00280191E9
:1013F0003FF428AF00BF0198411E002801913FF43F
:1014000021AF00BF0198411E00280191E4D119E7E6
:1014100000210160FFF7A4FC054600BF306880078B
:101420007FF50DAFFFF79CFC401B02284FF0030037
:10143000F4D920E7306A20F001003062306A20F0F1
:1014400004003062FFF78CFC054641F2883700BF8C
:10145000306A800720D5FFF783FC401BB8424FF06D
:101460000300F5D907E700BF306A40F0040030629E
:10147000306A40F001003062FFF772FC054641F22D
:10148000883700BF306A800706D4FFF769FC401B2D
:10149000B842F7D937E000BFB8F1000F7FF4D5AEFE
:1014A000F06920F08050F061CFE600BF306820F492
:1014B00080303060306820F480203060FFF750FCCE
:1014C000054600BF306880037FF59DAEFFF748FCFE
:1014D000401B64284FF00300F4D9CCE6306840F498
:1014E00080203060306840F480303060FFF738FC96
:1014F000054600BF306880033FF585AEFFF730FC3E
:10150000401B6428F6D9032002B0BDE8F08100BF7B
:10151000206AB0F5803F05D17168A26821F40031DE
:10152000114371607168626A21F4741110430843B9
:10153000706001203866FFF713FC044630688001B4
:101540003FF598AEFFF70CFC001B02284FF003009C
:10155000F4D990E6411E0020B0EB116F1CBF0120B2
:1015600070474EF21002CEF2000251604EF6235147
:10157000CEF20001F0230B700721906011607047DC
:10158000704700007047000010B590F83C20012A19
:101590004FF0020233D080F83D200268D2F804E018
:1015A000D2F808C00C682EF07003234340F2FF7499
:1015B000C4F20004A24253600ADCB2F1804F13D09F
:1015C00040F20043C4F200039A420DD011E000BF84
:1015D00042F60043C4F201039A4205D040F60003EC
:1015E000C4F200039A4204D149682CF080031943E5
:1015F00091600121002280F83D1080F83C201046C7
:1016000010BD0000002804BF0120704710B504463B
:1016100090F83D0028B9002084F83C00204600F0F6
:1016200067F8022084F83D00206840F2FF730268EA
:10163000C4F2000342F6004C9842C4F2010C15DCDF
:10164000B0F1804F1AD040F20041C4F2000188424C
:1016500014D0984218DCB0F1804F1DD040F2004108
:10166000C4F20001884217D01AE000BF604505D0DF
:1016700040F60001C4F200018842EAD1A16822F0DC
:1016800070020A439842E6DD604505D040F600014D
:10169000C4F20001884203D1216922F440720A4356
:1016A000A36922F08001D4F804E0E26819436045A0
:1016B0000160C262C0F828E002D16169CCF8301044
:1016C00001214161002084F8461084F83E1084F81E
:1016D0003F1084F8401084F8411084F8421084F8D8
:1016E000431084F8441084F8451084F83D1010BD70
:1016F00080B582B00068B0F1804F1CBF02B080BDE1
:1017000041F21C00C4F202000168002241F0010114
:1017100001600068002100F00100019001981C2088
:10172000FFF79CFB1C2002B0BDE88040FFF786BBA2
:1017300090F83D1001291CBF01207047022180F85C
:101740003D10006840F2FF72C168C4F2000290428E
:1017500041F00101C16009DCB0F1804F12D040F2CC
:101760000041C4F2000188420CD012E042F6004170
:10177000C4F20101884205D040F60001C4F2000124
:10178000884206D1816801F00701062904BF0020C4
:101790007047016841F001010160002070470000BE
:1017A00080B590F83C20012A4FF0020200F0C28080
:1017B00080F83D20D0F800C04FF67772DCF8083092
:1017C00023EA0202CCF808200B684F2B28DC1F2BE1
:1017D00044DD202B45D0302B43D0402B40F0AC8053
:1017E000D1F804E0C968DCF82030DCF8202022F0D1
:1017F0000102CCF82020DCF8182022F0F00242EAA6
:10180000011123F00A0242EA0E02CCF81810CCF8BB
:101810002020DCF8081041F0470121F0300180E081
:101820006F2B27DDB3F5005F48D0B3F5805F7AD02A
:10183000702B40F08180D1E901E3C968DCF8082011
:1018400043EA0E0322F47F4243EA01211143CCF81C
:101850000810DCF8081041F0770162E00BB1102BA2
:101860006AD1DCF8081021F07001194341F007013A
:1018700057E000BF502B35D0602B5DD1D1F804E08C
:10188000C968DCF82030DCF8202022F01002CCF807
:101890002020DCF8182022F4704242EA013123F0C3
:1018A000A00242EA0E12CCF81810CCF82020DCF886
:1018B000081041F0670121F0100132E0D1E901E3A5
:1018C000C968DCF8082043EA0E0322F47F4243EAA9
:1018D00001211143CCF80810DCF8081041F48041D4
:1018E0001FE000BFD1F804E0C968DCF82030DCF864
:1018F000202022F00102CCF82020DCF8182022F071
:10190000F00242EA011123F00A0242EA0E02CCF888
:101910001810CCF82020DCF8081041F0570121F015
:101920002001CCF808100022012180F83D10002190
:1019300080F83C10104680BD0122F5E7704700009A
:1019400010B5016804460869800744BFC8685FEAAB
:10195000807039D40869400744BFC8685FEA4070A6
:101960003ED40869000744BFC8685FEA007045D4E8
:101970000869C00644BFC8685FEAC0604AD4086905
:10198000C0071CBFC8685FEAC07051D10869000673
:1019900044BFC8685FEA006052D40869400644BF8B
:1019A000C8685FEA406053D40869800646BFC868CB
:1019B0005FEA806010BD6FF0200220460A61BDE83A
:1019C0001040FFF7DFBD00BF6FF00200086101208B
:1019D00020778869800743D02046FFF7AFFF45E0B6
:1019E0006FF00400086102202077886910F4407FBE
:1019F00040D02046FFF7A2FF42E000BF6FF0080092
:101A0000086104202077C86980073DD02046FFF791
:101A100095FF3FE06FF01000086108202077C8694B
:101A200010F4407F3AD02046FFF788FF3CE000BF2B
:101A30006FF001000861204600F03EF82168A5E73C
:101A40006FF0800008612046FFF79AFD2168A4E747
:101A50006FF040000861204600F04EF82168A3E7CF
:101A6000204600F025F8204600F024F821680020E8
:101A700020776FE7204600F01BF8204600F01AF8A8
:101A80002168002020776CE7204600F011F82046FE
:101A900000F010F821680020207769E7204600F068
:101AA00007F8204600F006F821680020207766E756
:101AB000704700007047000040F20011C2F20001C0
:101AC000884201D0704700BF40F27800C2F20000A7
:101AD000018845F6294201314A4393B29B0843EA03
:101AE000823292B21209282A018088BF7047418849
:101AF000013141807047000070470000FEE70000A0
:101B0000B0B582B040F60044C4F201042046802102
:101B100000220025FFF71EF98DF805509DF80500FD
:101B2000042823D89DF8050001308DF805009DF8A4
:101B3000050004281AD89DF8050001308DF805002D
:101B40009DF80500042811D89DF8050001308DF896
:101B500005009DF80500042808D89DF8050001300F
:101B60008DF805009DF805000528DBD320464021AF
:101B70000122FFF7EFF88DF806509DF806000428C3
:101B800024D800BF9DF8060001308DF806009DF8AE
:101B9000060004281AD89DF8060001308DF80600CA
:101BA0009DF80600042811D89DF8060001308DF834
:101BB00006009DF80600042808D89DF806000130AC
:101BC0008DF806009DF806000528DBD3204640214D
:101BD00000220025FFF7BEF88DF807509DF807009A
:101BE000042823D89DF8070001308DF807009DF8E0
:101BF000070004281AD89DF8070001308DF8070067
:101C00009DF80700042811D89DF8070001308DF8D1
:101C100007009DF80700042808D89DF80700013048
:101C20008DF807009DF807000528DBD320468021AA
:101C3000012202B0BDE8B040FFF78CB8B0B586B065
:101C400041F21800C4F20200016840F6004441F07D
:101C5000080101600068C4F2010400F0080001906E
:101C60000198C0200190032004901120029001A946
:101C70002046FEF75FFF2046802100220025FFF767
:101C800069F8204640210122FFF764F88DF81750CB
:101C90009DF81700042823D89DF8170001308DF80F
:101CA00017009DF8170004281AD89DF81700013076
:101CB0008DF817009DF81700042811D89DF817001B
:101CC00001308DF817009DF81700042808D89DF8FA
:101CD000170001308DF817009DF817000528DBD399
:101CE000204680210122FFF735F806B0B0BD000084
:101CF000B0B582B040F60044C4F201042046802111
:101D00000122FFF727F800258DF805509DF8050002
:101D1000042823D89DF8050001308DF805009DF8B2
:101D2000050004281AD89DF8050001308DF805003B
:101D30009DF80500042811D89DF8050001308DF8A4
:101D400005009DF80500042808D89DF8050001301D
:101D50008DF805009DF805000528DBD320464021BD
:101D60000122FEF7F7FF8DF806509DF806000428C3
:101D700024D800BF9DF8060001308DF806009DF8BC
:101D8000060004281AD89DF8060001308DF80600D8
:101D90009DF80600042811D89DF8060001308DF842
:101DA00006009DF80600042808D89DF806000130BA
:101DB0008DF806009DF806000528DBD3204640215B
:101DC00000220024FEF7C6FF8DF807409DF80700AB
:101DD000042823D89DF8070001308DF807009DF8EE
:101DE000070004281AD89DF8070001308DF8070075
:101DF0009DF80700042811D89DF8070001308DF8E0
:101E000007009DF80700042808D89DF80700013056
:101E10008DF807009DF807000528DBD302B0B0BDA0
:101E20002DE9F04381B040F600458046C4F201053B
:101E30004FF000090027002407E000BF780040EAC7
:101E40000607072C04F101046AD22846402101222A
:101E5000FEF780FF8DF802909DF80200042823D839
:101E60009DF8020001308DF802009DF80200042860
:101E70001AD89DF8020001308DF802009DF802008A
:101E8000042811D89DF8020001308DF802009DF859
:101E90000200042808D89DF8020001308DF80200E5
:101EA0009DF802000528DBD328468021FEF74CFF71
:101EB0000646002828464FF040014FF0000218BFA8
:101EC0000126FEF747FF8DF803909DF803000428D4
:101ED000B4D800BF9DF8030001308DF803009DF8D1
:101EE00003000428AAD89DF8030001308DF80300F0
:101EF0009DF803000428A1D89DF8030001308DF857
:101F000003009DF80300042898D89DF803000130D1
:101F10008DF803009DF803000528DBD38EE700BF92
:101F2000B8F1000F06D0FFF7EBFDF8B201B0BDE845
:101F3000F08300BFFFF7DCFEF8B201B0BDE8F0832C
:101F4000F0B581B040F600450446C4F20105002614
:101F5000002705E06400072F07F1010780F09C804F
:101F6000E0B2C20928468021FEF7F4FE8DF8016038
:101F70009DF80100042823D89DF8010001308DF858
:101F800001009DF8010004281AD89DF801000130D5
:101F90008DF801009DF80100042811D89DF801007A
:101FA00001308DF801009DF80100042808D89DF843
:101FB000010001308DF801009DF801000528DBD3F8
:101FC000284640210122FEF7C5FE8DF802609DF8EB
:101FD0000200042824D800BF9DF8020001308DF8CB
:101FE00002009DF8020004281AD89DF80200013072
:101FF0008DF802009DF80200042811D89DF8020017
:1020000001308DF802009DF80200042808D89DF8E0
:10201000020001308DF802009DF802000528DBD394
:10202000284640210022FEF795FE072F04D12846BE
:1020300080210122FEF78EFE8DF803609DF80300DB
:1020400004283FF687AF00BF9DF8030001308DF8EC
:1020500003009DF8030004283FF67CAF9DF80300C1
:1020600001308DF803009DF8030004283FF672AF9D
:102070009DF8030001308DF803009DF8030004284B
:102080003FF668AF9DF8030001308DF803009DF81E
:1020900003000528D8D35DE701B0F0BDB0B582B02C
:1020A00040F60044C4F20104204680210122FEF7DC
:1020B00051FE204640210122FEF74CFE00258DF8FE
:1020C00005509DF80500042824D800BF9DF80500A0
:1020D00001308DF805009DF8050004281AD89DF8F8
:1020E000050001308DF805009DF80500042811D881
:1020F0009DF8050001308DF805009DF805000428C5
:1021000008D89DF8050001308DF805009DF8050000
:102110000528DBD3204680210022FEF71BFE8DF828
:1021200006509DF80600042824D800BF9DF806003C
:1021300001308DF806009DF8060004281AD89DF895
:10214000060001308DF806009DF80600042811D81D
:102150009DF8060001308DF806009DF80600042861
:1021600008D89DF8060001308DF806009DF806009D
:102170000528DBD32046402100220024FEF7EAFD9B
:102180008DF807409DF80700042823D89DF8070024
:1021900001308DF807009DF8070004281AD89DF833
:1021A000070001308DF807009DF80700042811D8BA
:1021B0009DF8070001308DF807009DF807000428FE
:1021C00008D89DF8070001308DF807009DF807003A
:1021D0000528DBD302B0B0BDB0B582B040F60044F4
:1021E000C4F201042046802100220025FEF7B2FD42
:1021F000204640210122FEF7ADFD8DF807509DF8E5
:102200000700042824D800BF9DF8070001308DF88E
:1022100007009DF8070004281AD89DF80700013030
:102220008DF807009DF80700042811D89DF80700D5
:1022300001308DF807009DF80700042808D89DF8A4
:10224000070001308DF807009DF807000528DBD353
:1022500020468021012202B0BDE8B040FEF77ABDE1
:10226000B0B582B040F60044C4F20104204680219B
:102270000122FEF76FFD00258DF805509DF8050041
:10228000042823D89DF8050001308DF805009DF83D
:10229000050004281AD89DF8050001308DF80500C6
:1022A0009DF80500042811D89DF8050001308DF82F
:1022B00005009DF80500042808D89DF805000130A8
:1022C0008DF805009DF805000528DBD32046402148
:1022D0000122FEF73FFD8DF806509DF80600042808
:1022E00024D800BF9DF8060001308DF806009DF847
:1022F000060004281AD89DF8060001308DF8060063
:102300009DF80600042811D89DF8060001308DF8CC
:1023100006009DF80600042808D89DF80600013044
:102320008DF806009DF806000528DBD320468021A5
:10233000FEF70AFD05462046402100220024FEF754
:1023400009FD8DF807409DF80700042824D800BF38
:102350009DF8070001308DF807009DF8070004285C
:102360001AD89DF8070001308DF807009DF8070086
:10237000042811D89DF8070001308DF807009DF85A
:102380000700042808D89DF8070001308DF80700E1
:102390009DF807000528DBD3002D18BF012528462E
:1023A00002B0B0BD70B582B014460D4606460DF1C0
:1023B000020368204321062200F082F810B102B027
:1023C00070BD00BF40F20802BDF80210C2F2000268
:1023D000138809BAC3EB114140F28A033180BDF87A
:1023E0000410C2F200031B8809BAC3EB1141298013
:1023F000BDF80610528809BAC2EB1141218002B023
:1024000070BD000010B5FFF719FC6B20802100F0B3
:102410008FF86420FEF77AFB6B20002100F088F82B
:102420001B20182100F084F81C20002100F080F807
:102430001920132100F07CF81A20042100F078F80C
:102440003820002100F074F86A20002100F070F8B4
:102450002320002100F06CF83720802100F068F87C
:10246000FFF71CFED020FFF76BFDFFF7F9FE75208C
:10247000FFF766FDFFF7F4FEFFF710FED120FFF730
:102480005FFDFFF7EDFE0020FFF7CAFC0446FFF7F3
:10249000A3FE682C1CBF012010BD6B20012100F0A1
:1024A00047F86C200021002400F042F81920132185
:1024B00000F03EF81A20042100F03AF8204610BD42
:1024C000F0B581B01C4615460E460746FFF7E6FDFF
:1024D0007F00F8B2FFF734FDFFF7C2FE30B10124F0
:1024E000FFF77AFE204601B0F0BD00BF3046FFF78F
:1024F00027FDFFF7B5FEFFF7D1FD47F00100C0B2A1
:10250000FFF71EFDFFF7ACFE06E000BF0020FFF75F
:1025100087FC04F8010B013DE8B20128F6D008B1B0
:102520000120F4E70024FFF757FE204601B0F0BD7C
:10253000B0B50C460546FFF7B1FDD020FFF700FD12
:10254000FFF78EFE20B1FFF747FE0120B0BD00BFB0
:102550002846FFF7F5FCFFF783FE2046FFF7F0FC67
:10256000FFF77EFE0446002818BF0124FFF734FE63
:102570002046B0BD70B584B040F28C0042F20041FC
:10258000C2F20000C4F201014FF480720124002560
:102590004FF46023022604730575C361C0E900157A
:1025A00082600661FDF7C4FF002818BFFDF7EAFE50
:1025B00040F28C00C2F2000001A9CDE9016403954C
:1025C000FDF7E6FE002818BFFDF7DCFE03200190B2
:1025D0000220029040F28C00C2F2000001A9FDF737
:1025E000D7FE002818BFFDF7CDFE04B070BD000077
:1025F00080B582B041F21400C4F2020001680022EA
:1026000041F0010101600068002100F0010001902B
:1026100001980B20FEF722FC0B2002B0BDE88040A1
:10262000FEF70CBC2DE9F04F85B041F21800C4F262
:102630000200016840F6004841F0100101600168A5
:10264000C4F2010801F0100101910199016808F537
:10265000806741F0200101600168012201F0200142
:102660000191019901684FF4005541F004010160A6
:102670000168012401F0040101910199016841F010
:102680000801016000684FF4005100F0080001905B
:1026900001983846FEF75EFBA8F580663046A0211B
:1026A00000224FF00009FEF755FB404641F2C201FF
:1026B0000122FEF74FFB404640F20441002240F267
:1026C000044BFEF747FBCDE9015401AD4FF0020A80
:1026D000384629460394CDF810A0FEF72BFA304671
:1026E0002946CDE901A90394FEF724FA202001A987
:1026F00081E811040327304629460497FEF71AFAA9
:102700004020CDE9010930462946CDF80C90FEF76E
:1027100011FA802001A981E8110230462946049768
:10272000FEF708FA40462946CDE90149CDF80C905C
:10273000FEF700FA40462946CDE901A4CDE903475A
:10274000FEF7F8F940462946CDE901B4CDE903AAE0
:10275000FEF7F0F94FF48050CDE9010440462946D8
:10276000CDE9034AFEF7E6F9C02001A981E811028C
:10277000404629460497FEF7DDF905B0BDE8F08F25
:1027800080B586B040F200100021C2F2000040F295
:10279000E73C0591CDE90311CDE900114FF08042EE
:1027A0004723C0E9021C01618021C0E90023816147
:1027B000FEF728FF002818BFFDF7E4FD4FF4805016
:1027C000029040F20010C2F2000002A9FEF7E8FFFA
:1027D000002818BFFDF7D6FD40F20010C2F200003D
:1027E0006946FEF7D1FE002818BFFDF7CBFD06B005
:1027F00080BD0000FEE70000FEE70000B0B540F637
:102800000044C4F2010420464FF480610022FEF728
:10281000A1FA312000F008F9042000F005F9204663
:102820004FF480610122FEF795FA20464FF4806153
:102830000022FEF78FFA112000F0F6F8002000F0D9
:10284000F3F8054620464FF480610122FEF782FA34
:10285000042D08BFB0BD00BFFEE70000B0B540F6D4
:102860000044C4F20104204602210022FEF772FA5D
:1028700020464FF480610122FEF76CFAA4F58060D7
:1028800020210022FEF766FA204602210022FEF7F0
:1028900061FAFFF7B3FF20464FF480610022FEF794
:1028A00059FA202000F0C0F83F2000F0BDF8204683
:1028B0004FF480610122FEF74DFA20464FF480610B
:1028C0000022FEF747FA212000F0AEF8012000F0C8
:1028D000ABF820464FF480610122FEF73BFA204618
:1028E0004FF480610022FEF735FA222000F09CF8B8
:1028F000012000F099F820464FF480610122FEF794
:1029000029FA20464FF480610022FEF723FA2320A3
:1029100000F08AF8032000F087F820464FF4806129
:102920000122FEF717FA20464FF480610022FEF7DD
:1029300011FA242000F078F80A2000F075F82046FB
:102940004FF480610122FEF705FA20464FF48061C2
:102950000022FEF7FFF9252000F066F8642000F061
:1029600063F820464FF480610122FEF7F3F9204618
:102970004FF480610022FEF7EDF9262000F054F8B4
:102980000E2000F051F820464FF480610122FEF73E
:10299000E1F920464FF480610022FEF7DBF9312097
:1029A00000F042F8042000F03FF820464FF4806128
:1029B0000122FEF7CFF920464FF480610022FEF796
:1029C000C9F92A2000F030F840F20C05C2F20005E7
:1029D000287800F029F8687800F026F8A87800F048
:1029E00023F8E87800F020F8287900F01DF8204658
:1029F0004FF480610122FEF7ADF920464FF480616B
:102A00000022FEF7A7F9E22000F00EF820464FF46E
:102A100080610122FEF79EF9204602210122BDE8D5
:102A2000B040FEF797B90000B0B540F60004C4F21C
:102A30000104054600F0800220468021FEF78AF955
:102A4000204620210122FEF785F920464021FEF78D
:102A50007BF940EA4505204620210022FEF77AF95D
:102A600005F0800220468021FEF774F920462021DF
:102A70000122FEF76FF920464021FEF765F940EA92
:102A80004505204620210022FEF764F905F080026A
:102A900020468021FEF75EF9204620210122FEF724
:102AA00059F920464021FEF74FF940EA45052046F6
:102AB00020210022FEF74EF905F0800220468021F9
:102AC000FEF748F9204620210122FEF743F920466F
:102AD0004021FEF739F940EA450520462021002231
:102AE000FEF738F905F0800220468021FEF732F922
:102AF000204620210122FEF72DF920464021FEF735
:102B000023F940EA4505204620210022FEF722F95C
:102B100005F0800220468021FEF71CF92046202186
:102B20000122FEF717F920464021FEF70DF940EA91
:102B30004505204620210022FEF70CF905F0800211
:102B400020468021FEF706F9204620210122FEF7CB
:102B500001F920464021FEF7F7F840EA45052046F6
:102B600020210022FEF7F6F805F0800220468021A1
:102B7000FEF7F0F8204620210122FEF7EBF8204670
:102B80004021FEF7E1F840EA4505204620210022D9
:102B9000FEF7E0F8E8B2B0BD70B540F60044C4F20C
:102BA00001040546204602210022FEF7D3F8204604
:102BB0004FF480610022FEF7CDF82020FFF734FFAC
:102BC0005E20FFF731FF20464FF480610122FEF7BF
:102BD000C1F820464FF480610022FEF7BBF8302098
:102BE000FFF722FF40F20C06C2F200063078FFF732
:102BF0001BFF7078FFF718FFB078FFF715FFF0782C
:102C0000FFF712FF3079FFF70FFF20464FF4806186
:102C10000122FEF79FF820464FF480610022FEF764
:102C200099F8A020FFF700FF2878FFF7FDFE6878ED
:102C3000FFF7FAFEA878FFF7F7FEE878FFF7F4FE53
:102C400020464FF480610122FEF784F820460221DD
:102C50000122FEF77FF800BF20464FF4806100227A
:102C6000FEF778F80720FFF7DFFE0020FFF7DCFE15
:102C7000054620464FF480610122FEF76BF8E80616
:102C800004D4A806E8D52025272613E020464FF4D3
:102C900080610022FEF75EF82720FFF7C5FE1020B6
:102CA000FFF7C2FE20464FF480610122FEF752F882
:102CB000FF25E12620464FF480610022FEF74AF806
:102CC0003046FFF7B1FE2846FFF7AEFE20464FF430
:102CD00080610122FEF73EF8204602210022FEF725
:102CE00039F820464FF480610022FEF733F82020A7
:102CF000FFF79AFE3F20FFF797FE20464FF48061D2
:102D00000122FEF727F8204602210122BDE870408B
:102D1000FEF720B87047000070470000FEF726B8A5
:102D20007047000080B5FFF76DFB40F27800C2F2FB
:102D3000000000F10A0140F28C00C2F20000022201
:102D4000FDF7F6FC40F20010C2F20000FEF7F0FCC6
:102D5000BDE88040FFF782BD70B540F27806C2F250
:102D6000000640F60004301DB11D06F10802C4F251
:102D70000104FFF717FB7089B6F90810A0F5006091
:102D800000EB5060C1F34563C009194400EB91109A
:102D900040F28605B189B6F904204042C2F200052E
:102DA0006870A1F5006000EB5060C2F34561C00996
:102DB0001144A0EB9110A87020460221FDF7C4FF3A
:102DC00020B1287820F00100287007E00F20FDF7DF
:102DD0009DFE20460221FDF7B7FF88B12846FFF788
:102DE000DBFE287818B9687808B9A87860B10022A5
:102DF00004F500604FF40051BDE87040FDF7AABF34
:102E0000287840F00100DFE7E878B0FA80F0420966
:102E100004F500604FF40051BDE87040FDF79ABF23
:102E200040F20010C2F20000FEF78ABDFEE700008B
:102E300094B0FDF7A9FF00240120CDE90F44CDE9AE
:102E40000D440A900E904FF4E0104FF480310225AB
:102E500013900AA80494CDE90244CDE90B14CDE9FE
:102E60001151FEF79DF928B1EFF3108072B600BF43
:102E7000FEE700BF0F20CDE905054FF48060CDE9E6
:102E8000080405A802210794FEF7AAF820B1EFF381
:102E9000108072B6FEE700BF022001904FF40040A0
:102EA000039001A8FEF716F820B1EFF3108072B678
:102EB000FEE700BFFFF7B6FBFFF79AFBFFF760FCEA
:102EC000FFF758FBFFF72EFFFFF746FFFCE7000078
:102ED00000000000000001020304060708090102C7
:102EE00002030405060708090A0B0C0D0E0F10104B
:102EF000102F000800000020180000002801000822
:102F0000282F00081800002038070000440100089E
:102F100001000000100000009CFF0A00C0FFFFFF3E
:082F2000FF0000000024F40092
:04000005080000ED02
:00000001FF
