:020000040800F2
:10000000F80D0020C901000819220008F11F00089E
:10001000FD210008850200081943000800000000C7
:10002000000000000000000000000000752600082D
:1000300089020008000000007126000879260008E7
:10004000E3010008E3010008E3010008E301000800
:10005000E3010008E3010008E3010008E3010008F0
:10006000E3010008E3010008E3010008E3010008E0
:10007000E3010008E3010008E3010008E3010008D0
:10008000E3010008E3010008E3010008E3010008C0
:10009000C9410008E3010008E3010008E30100088A
:1000A000E3010008E3010008E3010008E3010008A0
:1000B00005270008E3010008E3010008E301000848
:1000C000E3010008E3010008E3010008E301000880
:1000D000E3010008E3010008E3010008E301000870
:1000E000E3010008E3010008E301000800F002F862
:1000F00000F05AF80AA090E8000C82448344AAF168
:100100000107DA4501D100F04FF8AFF2090EBAE865
:100110000F0013F0010F18BFFB1A43F0010318473B
:10012000B4420000D44200000A444FF0000C10F822
:10013000013B13F0070408BF10F8014B1D1108BF65
:1001400010F8015B641E05D010F8016B641E01F805
:10015000016BF9D113F0080F1EBF10F8014BAD1C55
:100160000C1B09D16D1E58BF01F801CBFAD505E073
:1001700014F8016B01F8016B6D1EF9D59142D6D3CD
:10018000704700000023002400250026103A28BFF5
:1001900078C1FBD8520728BF30C148BF0B607047F9
:1001A0001FB51FBD10B510BD00F031F81146FFF7A7
:1001B000F7FF04F0B3F800F04FF803B4FFF7F2FFD5
:1001C00003BC00F057F80000094880470948004781
:1001D000FEE7FEE7FEE7FEE7FEE7FEE7FEE7FEE7F7
:1001E000FEE7FEE704480549054A064B7047000054
:1001F0007D260008ED000008F8070020F80D00201B
:10020000F8090020F80900207047704770477546CC
:1002100000F02CF8AE4605006946534620F0070072
:10022000854618B020B5FFF7DDFFBDE820404FF050
:1002300000064FF000074FF000084FF0000BAC46EF
:10024000ACE8C009ACE8C009ACE8C009ACE8C0093A
:1002500021F007018D46704710B50446AFF30080CA
:100260002046BDE81040FFF7A8BF000000487047D7
:100270007001002001491820ABBEFEE726000200F5
:1002800070470000FEE7000070470000EFF31080A9
:1002900072B600BFFEE700002DE9F04F82B041F2D8
:1002A0000042C4F201020E680423904208BF0323F7
:1002B000002E009300F0F68040F2004C4FF6FF7ED7
:1002C0000022C4F2010C0124C1F2100E4FF0000A0A
:1002D0004FF0000947E000BF012502F00C040F2792
:1002E000A7402BEA070705FA04F43C4343F82640ED
:1002F000D1F804B040F20C455FEACB23DCF80830BB
:1003000054BF23EA080343EA0803C4F20105CCF80A
:1003100008302B685FEA8B2454BF23EA080343EAC2
:1003200008032B605FEA8B34DCF8043054BF23EA07
:10033000080343EA08035FEACB34CCF80430DCF866
:1003400000304FF0010454BF23EA080343EA0803D6
:10035000CCF800300E680AF1010A36FA0AF302F10D
:10036000040200F09F8004FA0AF816EA080FF1D0A0
:100370004B68734512DC122B56D8DFE803F0350BBF
:100380004549555555555555555555555555554D41
:10039000510000BFD1F80C9046E000BF4FF6FF754A
:1003A000C1F22105AB420FDC0025C1F21105AB42C1
:1003B0001AD00025C1F21205AB4215D00025C1F2BA
:1003C0002105AB4210D02FE00025C1F22205AB423F
:1003D0000AD00025C1F23105AB4205D00025C1F29B
:1003E0003205AB4220D100BF8B684BB1012B14BF4B
:1003F000C0F81480C0F810804FF0080914E000BF66
:100400004FF0040910E000BFCB6803F108090BE0CE
:100410004FF0000908E000BFCB6803F1040903E0D6
:10042000CB6803F10C0900BF13460546BAF1080F6B
:1004300024BF203B04352E680F279F40BE4309FA96
:1004400003F333432B60CB79DB067FF583AF41F2B7
:100450001804C4F2020423684FEA9A0643F0010329
:100460002360236840F6000403F001030193019B1D
:10047000ACF57E7353F826B0C4F20104A0420FD04D
:1004800040F60044C4F20104A0423FF425AF41F21B
:100490000004C4F20104009DA04208BF02251CE72D
:1004A00000251AE702B0BDE8F08F00008068084020
:1004B00018BF012070470000002A08BF090401612D
:1004C0007047000040F2F070C2F200000068704710
:1004D00040F2000040F2F071C2F20000C2F20001EE
:1004E00000780A68104408607047000080B542F246
:1004F0000000C4F20200016841F010010160032015
:1005000000F08AF80F2000F005F800F027F800202E
:1005100080BD000070B540F20006C2F2000640F255
:1005200084013278C2F200014FF47A730968B3FB98
:10053000F2F20446B1FBF2F1084601F093FA0F2CF7
:100540004FF0010508D838B94FF0FF30214600229E
:10055000002500F035F87460284670BD82B041F285
:100560001800C4F202000168022241F0010101609A
:10057000016801F0010101910199416841F0805148
:100580004160406800F08050009000980420C4F260
:100590000100016862F31A61016002B07047000057
:1005A000002848BF704700F01F01012202FA01F144
:1005B0004EF200124009CEF2000242F820107047BD
:1005C00010B54EF60C5CCEF2000CDCF80030C3F334
:1005D000022E8EF00704042C28BF0424BEF103036E
:1005E0004FF0FF3E0EFA04F438BF0023A1439940B8
:1005F0000EFA03F39A43114300F00F02043A6244E7
:1006000009010C3200F16043B0F1FF3FC8BF03F5B0
:100610006442117010BD00004EF60C51CEF2000184
:100620000A684FF6FF031A4060F30A2242F0806026
:1006300040F0FD700860704780B501F0070C0CEBCE
:100640008C0C00EBCC0C01EB810E0CF1280C00EBB8
:10065000CE00090658BF00F5B47C0020002A19BF5F
:10066000CCF808300121ACF8063000218CF80C10D1
:1006700080BD00007047000001EB8102D0F8EC3231
:1006800000EBC200C26B184602F036BB01EB8102E0
:10069000D0F8EC3200EBC200D0F87C21184602F012
:1006A00091BB000010B50446080601F0070000EBFE
:1006B000800104EBC10205D402F5B471002382F875
:1006C000693104E0012302F1280182F8293094F80D
:1006D000A8220870012A04BF022010BD2068012250
:1006E00084F8A82203F08CF8002084F8A80210BD3A
:1006F000B0B50446406801F00F02824284BF012079
:10070000B0BD080601F0070000EB800104EBC10258
:1007100006D402F5B471002382F8693105E000BF08
:10072000012302F1280182F8293094F8A82200253B
:10073000012A8D70087004BF0220B0BD206801221C
:1007400084F8A82203F0ECF8284684F8A852B0BD3B
:10075000B0B50546080601F0070000EB800105EB87
:10076000C10C05D40CF5B47100248CF8694104E087
:1007700001240CF128018CF8294008700A61022B31
:10078000CB7004BF0020087195F8A802012804BFAF
:100790000220B0BD2868012285F8A82202F004FFDB
:1007A000002085F8A802B0BD10B501F0070C0CEBD5
:1007B0008C0100EBC10E00680EF5B4710024CEF878
:1007C0007C21CEF88031CEF884418EF869418EF8D4
:1007D00068C103F0FDF8002010BD0000B0B504466C
:1007E000406801F00705854284BF0120B0BD0806BE
:1007F0000AD401EB810004EBC00000F5B4710022C3
:1008000080F8692109E000BF05EB850004EBC0001A
:10081000012200F1280180F8292094F8A802012281
:1008200001288A700D7004BF0220B0BD206884F8D2
:10083000A82203F0B3F81DB1002084F8A802B0BDCF
:10084000206804F52C7103F069F8002084F8A802F0
:10085000B0BD000080B501F0070C0CEB8C0100EB83
:10086000C10101F828CF00684FF0010C01F1140715
:1008700081F824C04FF0000E87E80C400B6281F82D
:1008800001C003F0A5F8002080BD00002DE9F04F65
:1008900081B00446006803F09DFC01041CD44105AE
:1008A00000F1F483410400F10384810400F11A840F
:1008B000C10400F12184010500F13884810500F1B3
:1008C0008784C00540F1F0832068B0F8441021F41B
:1008D0008071A0F84410E7E32068B0F94410B1F14A
:1008E000FF3F00F3E18304F52C7140F60F7B00918C
:1008F00023E000BFB0F8501094F8682101EBC2016A
:1009000000EB4101B1F80C34B4F86E2100996FF39B
:100910009F23C4F8843103F061FC2068018801EA58
:100920000B0180310180204600F026FD2068B0F9DF
:100930004410B1F1FF3F00F3B783B0F8442012F048
:100940000F094BD030F829804FEA490A5FEA084185
:1009500040F15C8130F81A1040F60F7501EA0B0186
:10096000803120F81A1009EB890104EBC10B9BF8C8
:1009700074110BF5B476002900F0B0809BF86B1170
:10098000022940F0BD80B0F8502031785FEA48433A
:1009900002EBC10200EB420200F1CC80B2F80C7411
:1009A000DBF880216FF39F27D21B4FF0000338BF85
:1009B0001A46CBF8802140F2D7805FEA486200F106
:1009C000E38030F8212048F2C0032A401A4320F87F
:1009D0002120002F40F0D980FCE000BF0188D20622
:1009E0002CD401EA0B0101F500410180B0F8501050
:1009F00094F8282001EBC20100EB4100B0F8040498
:100A0000E16B6FF39F2060640844E063204600219F
:100A1000FFF732FE94F82400002887D0206C0028CD
:100A20007FF484AF94F82400216840F08000C0B2C5
:100A3000A1F84C00002084F8240077E70A053FF570
:100A400059AF09047FF572AF018801EA0B018031CB
:100A50000180B0F8501094F8682101EBC20100EB5E
:100A60004101B1F80C346FF39F23C4F8843193B182
:100A7000D4F87C1179B1B4F86E2103F0AFFBD4F84F
:100A80007C01D4F884110844C4F87C01204600217C
:100A9000FFF7FCFD206801880A053FF547AF01F428
:100AA0004051B1F5405F3FF441AFB0F8501000F253
:100AB0000C42535A6FF39F235352D4F878313F2B93
:100AC000C0F00282DE068E5A4FEA53174FF0FF3510
:100AD00008BF05EB531746EA87237EE2B0F85010B3
:100AE000327801EBC20100EB4101B1F80C746FF3F5
:100AF0009F27002F6ED0DBF87C11BBF86E2165E0DC
:100B0000317848F2C00330F821202A401A4320F8F7
:100B1000212030F82120B0F85030520403EBC101FD
:100B200000EB41011AD4B1F80C746FF39F2767BB37
:100B300050E000BFB2F80474DBF880216FF39F2708
:100B4000D21B4FF0000338BF1A46CBF8802121D9C1
:100B50005FEA48622DD4AFBB3CE000BFB1F804743B
:100B60006FF39F2777BB35E030F8212043F60F73F2
:100B70001A404CF28003A3F500535A4020F821207C
:100B80005FEA48627FF51DAF27B3DBF87C11BBF845
:100B900072211BE030F8212043F60F731A404CF20B
:100BA0008003A3F500535A4020F821205FEA4862F1
:100BB000D1D530F8212048F2C0032A401A4320F84A
:100BC00021203FB1DBF87C11BBF870213B4603F0DC
:100BD00005FB00E00027DBF88411DBE95F02394404
:100BE0003844CBF88411CBF87C011AB1DBF87801DA
:100BF000B84205D931782046FFF748FD04E000BF30
:100C00002068314602F0E4FE40F60F7B5FEA0860A0
:100C10007FF58CAE206809EB890130F81A3004EBBF
:100C2000C10203EA0B0101F5004120F81A1092F805
:100C30002B1002F12806012924D192F83410002942
:100C40004FF00001116400F03A815FEA486100F161
:100C5000878092F82910012900F01E81002940F0B8
:100C60002E81B0F850103278084400EB0210B0F832
:100C70000C146FF39F21A0F80C14B0F80C1441F47D
:100C8000004110E15FEAC8511CD4B0F8503031780F
:100C9000176C03EBC10300EB4303B3F804340025E6
:100CA0006FF39F23FF1A38BF2F46176440F2088165
:100CB000D16B576C1944D163F9185164314602F075
:100CC00087FE33E6B0F8503031785FEA486703EBCF
:100CD000C1035FD400F20C4939F81370136C6FF341
:100CE0009F27DB1B4FF0000538BF2B46136440F2F3
:100CF0008B805FEA484308D430F821304CF28005FD
:100D000003EA0B032B4320F82130154615F84C3F1E
:100D1000012B40F0AB81134653F8488F53E904ECA4
:100D200053F804ACBC44BA44F04543F80CCC43F847
:100D300004AC80F00981B8F1000F00F06781002752
:100D4000C6461F602F7092F82930012B40F00481B5
:100D5000B0F8503009EB011121F803E07AE100BF4F
:100D600092F82910012900F0A180002940F0A78005
:100D7000B0F850103278084400EB0210B0F80414B8
:100D80006FF39F21A0F80414B0F8041441F400415B
:100D900093E000BF00F2044939F81370136C6FF34D
:100DA0009F27DB1B4FF0000538BF2B4613644FD93C
:100DB0005FEA484308D530F821304CF2800503EA59
:100DC0000B032B4320F82130134613F84C5F012D01
:100DD00040F04C81154655F848EF55E904AC55F8FC
:100DE000048CBC44B844D64545F80CCC45F8048C7A
:100DF00080F0CE804FF00008BEF1000F83F8008035
:100E000040F0C980BE46C8E092F82920012A67D088
:100E1000002A72D1B0F8502000EB01131A44B2F846
:100E200004346FF39F23A2F80434B2F8043443F47B
:100E30000043A2F80434B0F8500009EB0112135A31
:100E40006FF39F231352135A43F4004354E000BF3F
:100E500092F82920012A57D0002A62D1B0F85020F8
:100E600009EB01139F5A6FF39F279F529F5A47F434
:100E700000479F52B0F8502000EB01101044B0F82A
:100E80000C246FF39F22A0F80C24B0F80C2442F439
:100E90000042A0F80C2444E0B0F850103278084426
:100EA00000EB02100021A0F80C1408E0B0F850107C
:100EB0003278084400EB02100021A0F804143178C5
:100EC0002046FFF7D9FB31E5002B00F0858003F0C9
:100ED00001078E5A07EB530346EA832382E000BFE3
:100EE000B0F8502000EB01131A440023A2F8043498
:100EF000B0F8500009EB011213522046FFF7BCFB7B
:100F00005FEA484014D5B1E0B0F8502009EB011376
:100F100000279F52B0F8502000EB01101044A0F8B9
:100F20000C742046FFF7A8FB5FEA484040F19E8022
:100F3000206831784CF2800330F8212002EA0B025D
:100F40001A4320F8212091E0A8EB0E051D6092F8CD
:100F50002930012B3FF4FCAE002B7BD1B0F8507050
:100F600009EB0111CB5BBEF13F0F6FF39F23CB5316
:100F700054D34FEA5E135FEACE6537F801804FF035
:100F8000FF3508BF05EB5E1348EA83235FE000BF2F
:100F9000AEEB0A08D646C5F8008092F82930012B3E
:100FA0002CD0002B5CD1B0F8507009EB0111CB5B59
:100FB000BEF13F0F6FF39F23CB533BD34FEA5E133A
:100FC0005FEACE6537F801804FF0FF3508BF05EBCB
:100FD0005E1348EA832340E08B5A48F20007CFF6BD
:100FE000FF773B438B52018843F60F7211404CF25E
:100FF0008002A2F580525140018097E4B0F8503051
:1010000009EB011121F803E02AE000BF00232B7057
:10101000BE4692F82930012B9ED199E6BEF1000F11
:1010200014D00EF001037D5A03EB5E0345EA8323DF
:101030000FE000BFBEF1000F0ED00EF001037D5A8D
:1010400003EB5E0345EA832309E000BF7B5A43F4C8
:1010500000437B52528E04E07B5A43F400437B52A0
:10106000128E1FFA8EF3614603F012F92068317870
:1010700040F63F7330F821201A4048F2C003103B7D
:101080005A4020F82120FFF751BC00BF2068B0F87B
:10109000441021F48061A0F84410204600F03EF98D
:1010A00094F8A80201280DD101B0BDE8F08F00BF6F
:1010B0002068B0F8441021F48041A0F8441001B039
:1010C000BDE8F08F0120002584F8A80284F82450A0
:1010D0002068002103F0D4F884F8A85201B0BDE8DC
:1010E000F08F00BF2068B0F8441021F40051A0F840
:1010F000441001B0BDE8F08F2068B0F8401021F036
:101100000401A0F84010B0F8401021F00801A0F848
:101110004010204600F014F92068B0F8441021F483
:101120008051A0F8441001B0BDE8F08F2168B1F8FB
:1011300000C0B1F804E0B1F808808F890E8A8D8A6A
:10114000088B8A8BB1F8403043F00103A1F840309E
:10115000B1F8403023F00103A1F84030B1F8443039
:101160005B050CD4B1F844305B055CBFB1F844308A
:101170005FEA435303D4B1F844305B05EED5B1F8D0
:10118000443023F48063A1F84430A1F800C0A1F8F2
:1011900004E0A1F808808F810E828D8208838A8303
:1011A000B1F8400040F00800A1F84000B1F8440058
:1011B00020F40060A1F84400B1F8400040F00402BF
:1011C0002046A1F8402001B0BDE8F04F00F0F6B88D
:1011D0002168B1F8440020F400722046A1F84420B0
:1011E00001B0BDE8F04F00F0AFB80000F0B585B039
:1011F00000285ED0044690F8A90228B9002084F89F
:10120000A802204600F066F8032084F8A9022068AE
:1012100002F07AFB94E82F50D4E907678DE820505C
:10122000CDE9036702F0EAFA00283FD120680021E7
:10123000002503F023F8616841B301200023002258
:1012400003EB830304EBC30787F828200132D3B2F2
:10125000994287F8290087F82B50C7E90E553D645D
:10126000EED800200023002203EB830304EBC30726
:1012700087F868210132D3B2994287F8690187F86B
:101280006B01C7E95E00C7F88001EDD804F10807DB
:10129000D4E9056520688CCFD4E907CECDE9007686
:1012A00002AE86E8205002F021FB38B1022084F81B
:1012B000A9020125284605B0F0BD00BF0025012088
:1012C00084F8245084F8A902206802F00DFB284617
:1012D00005B0F0BD80B582B0006845F60041C4F2AB
:1012E000000188421CBF02B080BD41F21C00C4F264
:1012F00002000168002241F4000101600068002141
:1013000000F40000019001981420FFF759F914200F
:1013100002B0BDE88040FFF743B9000010B50446B5
:101320008068022818BFFEF7B1FFD4F8EC02012153
:1013300001F03AFED4F8EC02BDE8104001F0F2BD35
:10134000D0F8EC0201F018BED0F8EC0201F01EBE9D
:1013500010B5044690F8A802012804BF022010BD71
:10136000012084F8A80284F82410206802F088FF85
:10137000002084F8A80210BDD0F8EC2200F52C71F2
:10138000104601F027BE000010B5044690F8A802F0
:10139000012804BF022010BD2068012184F8A81292
:1013A00002F008FF20460121FFF764F9206802F0EF
:1013B00099FA002084F8A80210BD000010B5044678
:1013C000D0F8EC0201F05CFEA069002808BF10BD57
:1013D0004EF61050CEF20000016841F006010160A7
:1013E00010BD00002DE9F04182B00446007841F2C2
:1013F0001C06C007C4F202064AD0306810F08058BC
:1014000008D1306840F080503060306800F0805083
:101410000190019847F20007C4F200073868C00540
:1014200012D4386840F480703860FFF74BF80546F6
:101430003868C00508D4FFF745F8401B6428F7D981
:10144000032002B0BDE8F081706810F4407012D043
:10145000616801F4407188420DD0706840F24042EA
:10146000C4F24222012320F4407113600023C0071C
:10147000136071602AD17068616820F4407008437D
:10148000B8F1000F706003D1306820F080503060F8
:101490002068810707D556F8181CA26821F440413E
:1014A000114346F8181CC00604D4002002B0BDE861
:1014B000F08100BF56F8180CE16820F48000084362
:1014C00046F8180C002002B0BDE8F081FEF7FAFFE4
:1014D000054641F2883700BF70688007CBD4FEF71D
:1014E000F1FF401BB8424FF00300F5D9EBE70000D5
:1014F0002DE9F04381B0002800F0858042F2000819
:10150000C4F202080446D8F800000D4600F00700B7
:1015100088420CD2D8F8000020F007002843C8F811
:101520000000D8F8000000F00700A8426BD1206846
:1015300041F204098107C4F2020917D5410705D514
:10154000D9F8001041F4E061C9F80010010705D591
:10155000D9F8001041F46051C9F80010D9F8001012
:10156000A26821F0F0011143C9F80010C00741D171
:10157000D8F8000000F00700A8420CD9D8F8000005
:1015800020F007002843C8F80000D8F8000000F059
:101590000700A84237D12068410707D5D9F80010C5
:1015A000E26821F4E0611143C9F80010000708D592
:1015B000D9F80000216920F4605040EAC100C9F860
:1015C0000000D9F8002002F00C00082841F20020A9
:1015D000C0F27A0050D144F2C433C2F38341C0F662
:1015E0000003595CD2033BD440F60010C0F23D002A
:1015F000484341E0606802280AD001282AD159F8FE
:10160000041C890308D4012001B0BDE8F08300BFA9
:1016100059F8041C8901F6D5D9F8001021F003010E
:101620000843C9F80000FEF74DFF064641F288372F
:10163000D9F80000616800F00C00B0EB810F97D082
:10164000FEF740FF801BB842F2D9032001B0BDE88D
:10165000F08300BF59F8041C8907D4D5DCE700BF2C
:10166000D9F8002044F2C233C2F34042C0F600036E
:101670009A5C4843B0FBF2F0D9F8001044F2B23261
:10168000C1F30311C0F60002515C40F2840220FA5B
:1016900001F140F20400C2F200000068C2F2000250
:1016A0001160FEF737FF002001B0BDE8F0830000B5
:1016B0002DE9F04182B0002868D00446007841F25C
:1016C0000006C007C4F2020625D0706800F00C00C6
:1016D00004281BD0706800F00C00082802D1706844
:1016E000C00313D46068002800F06881B0F5A02F13
:1016F00000F07C81B0F5803F00F07C81306820F400
:1017000080303060306820F4802076E130688003DB
:1017100001D56068D0B32078800718D5706810F0C4
:101720000C0F07D0706800F00C0008286ED17068AC
:10173000C0036BD43068800702D52069012825D109
:101740003068616920F0F80040EAC100306020781C
:1017500000071FD42078400732D4E56995B170683E
:1017600000F00C00082840F08F80012D0ED070682A
:10177000216A00F480328A4208D1616A00F4701054
:10178000884203D1002002B0BDE8F081012002B000
:10179000BDE8F081A069002862D00020C4F2422098
:1017A0000121C0F88014FEF78DFE0546706A80079F
:1017B00000F18C80FEF786FE401B0228F6D92AE154
:1017C000F06910F0805808D1F06940F08050F06165
:1017D000F06900F080500090009847F20007C4F2D2
:1017E00000073868C00529D4386840F48070386034
:1017F000FEF768FE054600BF3868C0051ED4FEF738
:1018000061FE401B6428F7D905E100BF206900286C
:1018100040F20000C4F2422000F082800121016009
:10182000FEF750FE054600BF306880073FF588AFE1
:10183000FEF748FE401B0228F6D9ECE0E0680028DD
:1018400000F08080052800F09780012800F0988043
:10185000306A20F001003062306A20F0040092E02B
:101860000020C4F242200021C0F88014FEF72AFEB6
:10187000054600BF706A80077FF56CAFFEF722FE59
:10188000401B0228F6D9C6E00027C4F242270020F8
:101890003866FEF717FE022D05460BD13068800131
:1018A00040F1BE80FEF70EFE401B02284FF0030001
:1018B000F4D968E7306880017FF564AFFEF702FE77
:1018C000401B02284FF00300F4D95CE740F284008B
:1018D000C2F20000006844F6D351C1F26201A0FBDD
:1018E0000101480A019000BF00BF0198411E002875
:1018F00001913FF42FAF00BF0198411E00280191D4
:101900003FF428AF00BF0198411E002801913FF429
:1019100021AF00BF0198411E00280191E4D119E7D1
:1019200000210160FEF7CEFD054600BF306880074C
:101930007FF50DAFFEF7C6FD401B02284FF00300F8
:10194000F4D920E7306A20F001003062306A20F0DC
:1019500004003062FEF7B6FD054641F2883700BF4D
:10196000306A800720D5FEF7ADFD401BB8424FF02E
:101970000300F5D907E700BF306A40F00400306289
:10198000306A40F001003062FEF79CFD054641F2EE
:10199000883700BF306A800706D4FEF793FD401BEE
:1019A000B842F7D937E000BFB8F1000F7FF4D5AEE9
:1019B000F06920F08050F061CFE600BF306820F47D
:1019C00080303060306820F480203060FEF77AFD8F
:1019D000054600BF306880037FF59DAEFEF772FDBF
:1019E000401B64284FF00300F4D9CCE6306840F483
:1019F00080203060306840F480303060FEF762FD57
:101A0000054600BF306880033FF585AEFEF75AFDFE
:101A1000401B6428F6D9032002B0BDE8F08100BF66
:101A2000206AB0F5803F05D17168A26821F40031C9
:101A3000114371607168626A21F4741110430843A4
:101A4000706001203866FEF73DFD04463068800175
:101A50003FF598AEFEF736FD001B02284FF003005D
:101A6000F4D990E6411E0020B0EB116F1CBF01209D
:101A700070474EF21002CEF2000251604EF6235132
:101A8000CEF20001F0230B700721906011607047C7
:101A9000704700007047000010B590F83C20012A04
:101AA0004FF0020233D080F83D200268D2F804E003
:101AB000D2F808C00C682EF07003234340F2FF7484
:101AC000C4F20004A24253600ADCB2F1804F13D08A
:101AD00040F20043C4F200039A420DD011E000BF6F
:101AE00042F60043C4F201039A4205D040F60003D7
:101AF000C4F200039A4204D149682CF080031943D0
:101B000091600121002280F83D1080F83C201046B1
:101B100010BD0000002804BF0120704710B5044626
:101B200090F83D0028B9002084F83C00204600F0E1
:101B300067F8022084F83D00206840F2FF730268D5
:101B4000C4F2000342F6004C9842C4F2010C15DCCA
:101B5000B0F1804F1AD040F20041C4F20001884237
:101B600014D0984218DCB0F1804F1DD040F20041F3
:101B7000C4F20001884217D01AE000BF604505D0CA
:101B800040F60001C4F200018842EAD1A16822F0C7
:101B900070020A439842E6DD604505D040F6000138
:101BA000C4F20001884203D1216922F440720A4341
:101BB000A36922F08001D4F804E0E268194360458B
:101BC0000160C262C0F828E002D16169CCF830102F
:101BD00001214161002084F8461084F83E1084F809
:101BE0003F1084F8401084F8411084F8421084F8C3
:101BF000431084F8441084F8451084F83D1010BD5B
:101C000080B582B00068B0F1804F1CBF02B080BDCB
:101C100041F21C00C4F202000168002241F00101FF
:101C200001600068002100F00100019001981C2073
:101C3000FEF7C6FC1C2002B0BDE88040FEF7B0BC39
:101C400090F83D1001291CBF01207047022180F847
:101C50003D10006840F2FF72C168C4F20002904279
:101C600041F00101C16009DCB0F1804F12D040F2B7
:101C70000041C4F2000188420CD012E042F600415B
:101C8000C4F20101884205D040F60001C4F200010F
:101C9000884206D1816801F00701062904BF0020AF
:101CA0007047016841F001010160002070470000A9
:101CB00080B590F83C20012A4FF0020200F0C2806B
:101CC00080F83D20D0F800C04FF67772DCF808307D
:101CD00023EA0202CCF808200B684F2B28DC1F2BCC
:101CE00044DD202B45D0302B43D0402B40F0AC803E
:101CF000D1F804E0C968DCF82030DCF8202022F0BC
:101D00000102CCF82020DCF8182022F0F00242EA90
:101D1000011123F00A0242EA0E02CCF81810CCF8A6
:101D20002020DCF8081041F0470121F0300180E06C
:101D30006F2B27DDB3F5005F48D0B3F5805F7AD015
:101D4000702B40F08180D1E901E3C968DCF80820FC
:101D500043EA0E0322F47F4243EA01211143CCF807
:101D60000810DCF8081041F0770162E00BB1102B8D
:101D70006AD1DCF8081021F07001194341F0070125
:101D800057E000BF502B35D0602B5DD1D1F804E077
:101D9000C968DCF82030DCF8202022F01002CCF8F2
:101DA0002020DCF8182022F4704242EA013123F0AE
:101DB000A00242EA0E12CCF81810CCF82020DCF871
:101DC000081041F0670121F0100132E0D1E901E390
:101DD000C968DCF8082043EA0E0322F47F4243EA94
:101DE00001211143CCF80810DCF8081041F48041BF
:101DF0001FE000BFD1F804E0C968DCF82030DCF84F
:101E0000202022F00102CCF82020DCF8182022F05B
:101E1000F00242EA011123F00A0242EA0E02CCF873
:101E20001810CCF82020DCF8081041F0570121F000
:101E30002001CCF808100022012180F83D1000217B
:101E400080F83C10104680BD0122F5E77047000085
:101E500010B5016804460869800744BFC8685FEA96
:101E6000807039D40869400744BFC8685FEA407091
:101E70003ED40869000744BFC8685FEA007045D4D3
:101E80000869C00644BFC8685FEAC0604AD40869F0
:101E9000C0071CBFC8685FEAC07051D1086900065E
:101EA00044BFC8685FEA006052D40869400644BF76
:101EB000C8685FEA406053D40869800646BFC868B6
:101EC0005FEA806010BD6FF0200220460A61BDE825
:101ED0001040FFF7DFBD00BF6FF002000861012076
:101EE00020778869800743D02046FFF7AFFF45E0A1
:101EF0006FF00400086102202077886910F4407FA9
:101F000040D02046FFF7A2FF42E000BF6FF008007C
:101F1000086104202077C86980073DD02046FFF77C
:101F200095FF3FE06FF01000086108202077C86936
:101F300010F4407F3AD02046FFF788FF3CE000BF16
:101F40006FF001000861204600F03EF82168A5E727
:101F50006FF0800008612046FFF79AFD2168A4E732
:101F60006FF040000861204600F040F82168A3E7C8
:101F7000204600F025F8204600F024F821680020D3
:101F800020776FE7204600F01BF8204600F01AF893
:101F90002168002020776CE7204600F011F82046E9
:101FA00000F010F821680020207769E7204600F053
:101FB00007F8204600F006F821680020207766E741
:101FC000704700007047000040F2A871C2F20001A3
:101FD00088420AD140F2D010C2F2000001880129E3
:101FE00018BF704741880131418070477047000039
:101FF000FEE700002DE9F04F85B041F21800C4F271
:102000000200016840F6004841F0100101600168DB
:10201000C4F2010801F0100101910199016808F56D
:10202000806741F0200101600168012201F0200178
:102030000191019901684FF4005541F004010160DC
:102040000168012401F0040101910199016841F046
:102050000801016000684FF4005100F00800019091
:1020600001983846FEF728FAA8F580663046A02188
:1020700000224FF0000BFEF71FFA404641F202012A
:102080000122FEF719FA404640F20441002240F2D4
:10209000044AFEF711FACDE9015401AD4FF00209EF
:1020A000384629460394CDF81090FEF7F5F8202025
:1020B00001A981E811020327304629460497FEF75B
:1020C000EBF84020CDE9010B30462946CDF80CB0A5
:1020D000FEF7E2F8802001A981E811083046294680
:1020E0000497FEF7D9F840462946CDE9014BCDF8D3
:1020F0000CB0FEF7D1F840462946CDE90194CDE970
:102100000347FEF7C9F840462946CDE901A4CDE9C9
:102110000399FEF7C1F84FF48050CDE90104404621
:102120002946CDE90349FEF7B7F805B0BDE8F08FC1
:1021300080B586B040F2A8700021C2F2000040F2E3
:10214000E73C0591CDE90311CDE900114FF0804244
:102150004723C0E9021C01618021C0E9002381619D
:10216000FFF7D8FC002818BFFEF790F84FF4805016
:10217000029040F2A870C2F2000002A9FFF798FD99
:10218000002818BFFEF782F840F2A870C2F20000E3
:102190006946FFF781FC002818BFFEF777F806B004
:1021A00080BD000080B540F2F41040F26001C2F240
:1021B0000000C2F20001002200F062FD002818BFFA
:1021C000FEF764F840F2F41040F29C01C2F2000005
:1021D000C2F2000100F07CFF002818BFFEF756F89D
:1021E00040F2F410C2F2000000F088FF002808BF9F
:1021F00080BDBDE88040FEF749B80000FEE7000062
:1022000040F2F41040F2D411C2F20000C2F2000118
:10221000042200F09BBC0000FEE70000B0B540F6D1
:102220000044C4F2010420464FF480610022FEF70E
:1022300043F9312000F064F9042000F061F92046F0
:102240004FF480610122FEF737F920464FF4806198
:102250000022FEF731F9112000F052F9002000F0C1
:102260004FF9054620464FF480610122FEF724F91C
:10227000042D08BFB0BD00BFFEE70000B0B540F6BA
:102280000044C4F20104204602210022FEF714F9A2
:1022900020464FF480610122FEF70EF9A4F580601C
:1022A00020210022FEF708F9204602210022FEF735
:1022B00003F9FFF7B3FF20464FF480610022FEF7D9
:1022C000FBF8202000F01CF93F2000F019F920460F
:1022D0004FF480610122FEF7EFF820464FF4806151
:1022E0000022FEF7E9F8212000F00AF9012000F0B1
:1022F00007F920464FF480610122FEF7DDF8204601
:102300004FF480610022FEF7D7F8222000F0F8F8A1
:10231000012000F0F5F820464FF480610122FEF71D
:10232000CBF820464FF480610022FEF7C5F8232049
:1023300000F0E6F8032000F0E3F820464FF4806157
:102340000122FEF7B9F820464FF480610022FEF723
:10235000B3F8242000F0D4F80A2000F0D1F8204689
:102360004FF480610122FEF7A7F820464FF4806108
:102370000022FEF7A1F8252000F0C2F8642000F04A
:10238000BFF820464FF480610122FEF795F8204601
:102390004FF480610022FEF78FF8262000F0B0F89D
:1023A0000E2000F0ADF820464FF480610122FEF7C8
:1023B00083F820464FF480610022FEF77DF831203B
:1023C00000F09EF8042000F09BF820464FF4806156
:1023D0000122FEF771F820464FF480610022FEF7DB
:1023E0006BF82A2000F08CF840F27C05C2F2000560
:1023F000287800F085F8687800F082F8A87800F076
:102400007FF8E87800F07CF8287900F079F8204629
:102410004FF480610122FEF74FF820464FF48061AF
:102420000022FEF749F8E22000F06AF820464FF457
:1024300080610122FEF740F8204602210122BDE81A
:10244000B040FEF739B80000F0B581B040F6004466
:10245000C4F20104054620460121FEF727F818B111
:102460000026304601B0F0BD20464FF480610022C6
:102470000026FEF721F8072000F042F8002000F0C7
:102480003FF8074620464FF480610122FEF714F81A
:102490007806E6D520464FF480610022FEF70CF85E
:1024A000272000F02DF8402000F02AF820464FF4B5
:1024B000806101220126FDF7FFFF20464FF4806175
:1024C0000022FDF7F9FF612000F01AF8002000F06B
:1024D00017F82870002000F013F86870002000F052
:1024E0000FF8A870002000F00BF8E87020464FF4B9
:1024F00080610122FDF7E0FF304601B0F0BD000031
:10250000B0B540F60004C4F20104054600F08002B4
:1025100020468021FDF7D0FF204620210122FDF733
:10252000CBFF20464021FDF7C1FF40EA450520468C
:1025300020210022FDF7C0FF05F080022046802107
:10254000FDF7BAFF204620210122FDF7B5FF204606
:102550004021FDF7ABFF40EA45052046202100223F
:10256000FDF7AAFF05F0800220468021FDF7A4FFB9
:10257000204620210122FDF79FFF20464021FDF744
:1025800095FF40EA4505204620210022FDF794FFF3
:1025900005F0800220468021FDF78EFF2046202195
:1025A0000122FDF789FF20464021FDF77FFF40EA29
:1025B0004505204620210022FDF77EFF05F0800220
:1025C00020468021FDF778FF204620210122FDF7DB
:1025D00073FF20464021FDF769FF40EA450520468C
:1025E00020210022FDF768FF05F0800220468021AF
:1025F000FDF762FF204620210122FDF75DFF204606
:102600004021FDF753FF40EA4505204620210022E6
:10261000FDF752FF05F0800220468021FDF74CFFB8
:10262000204620210122FDF747FF20464021FDF7EB
:102630003DFF40EA4505204620210022FDF73CFFF2
:1026400005F0800220468021FDF736FF204620213C
:102650000122FDF731FF20464021FDF727FF40EA28
:102660004505204620210022FDF726FFE8B2B0BD37
:102670007047000070470000FDF72ABF7047000058
:1026800080B540F2A870C2F20000FFF7D9FABDE8A9
:102690008040FFF7F3BD000070B540F2D414C2F2E1
:1026A00000042046FFF7D0FE90B140F2D010C2F2F5
:1026B000000000210160FFF7A3FD40F60040C4F2D6
:1026C00001004FF480510022BDE87040FDF7F4BED8
:1026D00040F2D015C2F2000568880121B0F5FA7FFA
:1026E000298038BF70BD40F60040C4F201004FF4AD
:1026F00080510122FDF7E0FE00262660FFF780FDF5
:102700006E8070BD40F2A870C2F20000FFF7A0BB5F
:1027100080B5D0F8B42252689047002080BD0000F8
:1027200080B513460A46002100F0EAFB002080BD78
:1027300080B513460A46002100F0ACFC002080BDA5
:1027400010B58021044600F077FC20460021BDE84A
:10275000104000F071BC000080B50521C0F8941253
:1027600000210022002300F0CBFB002080BD0000F0
:1027700080B513460A460221C0F894120021C0E930
:10278000073300F087FC002080BD000080B50421E5
:10279000C0F8941200210022002300F07BFC0020EE
:1027A00080BD000010B540F2DC14C2F200040A46FD
:1027B00002A0214600F010F9204610BD48494420EF
:1027C000436F6E666967000040F288001222C2F211
:1027D00000000A807047000010B540F2DC14C2F21D
:1027E00000040A4602A0214600F0F6F8204610BD7B
:1027F00048494420496E7465726661636500000053
:1028000040F24C100422C2F200000A80704700001F
:1028100010B540F2DC14C2F200040A4602A02146C0
:1028200000F0DAF8204610BD53544D6963726F65AD
:102830006C656374726F6E696373000010B540F26B
:10284000DC14C2F200040A4602A0214600F0C4F8DB
:10285000204610BD53544D33322048756D616E20B3
:10286000696E74657266616365000000B0B54FF211
:10287000E870C1F6FF70026883684FF01A0C9B186D
:10288000A1F800C000F0A3804FF0370C1A0F0CEB3A
:1028900013714068B3F1204F38BF02F1300140F2AC
:1028A0005012C2F20002917019014FF0000E0CEBB1
:1028B000117582F803E0C3F30364B1F1204F38BF10
:1028C00004F13005190215710CEB117582F805E061
:1028D000C3F30354B1F1204F38BF04F1300519039D
:1028E00095710CEB117582F807E0C3F30344B1F165
:1028F000204F38BF04F13005190415720CEB117527
:1029000082F809E0C3F30334B1F1204F38BF04F17A
:102910003005190595720CEB117582F80BE0C3F3C5
:102920000324B1F1204F38BF04F1300519061573A7
:10293000C3F303140CEB1175B1F1204F4FEA03718F
:1029400003F00F0382F80DE038BF04F1300503F106
:102950003704957382F80FE0B1F1204F38BF03F1CF
:102960003004010F0CEB1073147482F811E0B0F115
:10297000204F38BF01F1300301010CEB1174937447
:1029800082F813E0C0F30363B1F1204F38BF03F1C5
:10299000300401021475C0F303530CEB1174B1F150
:1029A000204F4FEA003182F815E038BF03F13004C0
:1029B0000CEB1173947582F817E0C0F30340B1F18A
:1029C000204F38BF00F13003137682F819E040F24F
:1029D0005010C2F20000B0BD10B5002868D00378D6
:1029E000B3B100F1020E4FF0000C00BF1EF8013C25
:1029F00093B19EF800309BB19EF80130A3B19EF8D0
:102A000002300CF1040C002B0EF1040EEED10DE09F
:102A10004FF0000C0AE000BF4CF0010C06E000BFD4
:102A20004CF0020C02E000BF4CF0030C5FFA8CFC8F
:102A3000022303EB4C03138003220B704A7090F8BF
:102A400000E0BEF1000F33D0023002224FF0000C44
:102A50001AE000BF141DE4B244F0010E0B5501F85A
:102A60000EC04378002B08BF10BD941DE4B244F0A3
:102A7000010E0B5501F80EC090F802E00832BEF1CD
:102A8000000F00F1040013D0D3B243F0010401F8A9
:102A900003E001F804C010F8013C4BB1941CE4B20F
:102AA00044F0010E0B5501F80EC00378002BD1D174
:102AB00010BD0000D0F8B812002200200A73704741
:102AC000B0B58121044600F005F9D4F8B80200251C
:102AD000E56218B100F060FDC4F8B8520020B0BD46
:102AE000014640F21C100A22C2F200000A80704720
:102AF000014640F2D4002222C2F200000A80704750
:102B0000014640F2F8002222C2F200000A8070471B
:102B1000014640F228102222C2F200000A807047CB
:102B200010B5812103220423044600F0D5F90120C9
:102B3000E062102000F032FD0028C4F8B8020FBF98
:102B4000022001460020087310BD000080B590F8F7
:102B50009C32032B05D194460A46D0F8B8120B7B61
:102B600013B1002080BD00BF01230B738121634698
:102B700000F090FA002080BD80B582B00B78D0F8CC
:102B8000B8C2002213F06003ADF8062012D0202B4B
:102B900040F062804A78931E092B00F25D80DFE8E6
:102BA00003F0052F5B5B5B5B5B5B21370CF1040182
:102BB00027E000BF4B780B2B4ED8DFE803F0074D22
:102BC0004D4D4D4D2F4D4D4D194300BF90F89C225A
:102BD000032A41D10DF106010222FFF7C9FD0020B1
:102BE00002B080BDC878CCF80400002002B080BDDF
:102BF00090F89C22032A2FD10CF1080101E000BFBC
:102C000061460122FFF7B4FD002002B080BD00BF85
:102C10008878CCF80000002002B080BDCA78212A54
:102C200020D0222A18D1CA8840F20801C2F200013D
:102C30004A2A28BF4A220C31FFF79AFD002002B031
:102C400080BD00BF90F89C22032A05D18878CCF87B
:102C50000800002002B080BDFFF772FD022002B024
:102C600080BD00BFCA8840F20801C2F20001092AF3
:102C700028BF0922FFF77CFD002002B080BD0000C4
:102C8000002804BF0220704780B5D0F8B432002B72
:102C90001CBF0023C0F8B432002918BFC0F8B0121E
:102CA000012180F89C12027000F0D2F8002080BD53
:102CB00080B5D0F8C002FDF71BFD40F200220223D0
:102CC000C100C0F20122042838BF22FA01F3D8B2B1
:102CD00080BD000080B5D0F8C002FDF7E3FC40F2F3
:102CE00000220223C100C0F20122042838BF22FAC8
:102CF00001F3D8B280BD0000B0B5044671B1D4F87C
:102D0000B402426942B194F89C02032804D12046DF
:102D10009047002054E000BF0220B0BDD4F89402D8
:102D2000002818BF042805D12046802100F084F92E
:102D30003DE000BF02283AD1D4E90810814209D908
:102D4000081A83B22062204611461A46FFF7F0FCAB
:102D500014E000BFE169814218D3B1FBF0F202FB3D
:102D6000101098B9D4F8980281420FD22046002161
:102D700000220025FFF7DCFCC4F898522046002111
:102D80000022002300F0BCF811E000BFD4F8B40228
:102D9000C16829B194F89C02032801D120468847D4
:102DA0002046802100F048F92046FFF7D5FC94F832
:102DB000A00201284FF0000004BF84F8A002B0BDBB
:102DC000B0BD0000B0B5044671B1D4F8B402826958
:102DD00042B194F89C02032804D120469047002574
:102DE0001CE000BF0220B0BDD4F8940200250528E5
:102DF00016D0032812D1D4E95810814218D9091AE3
:102E0000C4F86011814238BF084683B2204611469B
:102E10001A46FFF785FC0020B0BD00BF2846B0BDB4
:102E200020460021C4F8945200F006F92846B0BDAF
:102E3000D4F8B402016929B194F89C02032801D1A5
:102E4000204688472046FFF7A1FC0020B0BD0000C7
:102E500010B5044640F2B84045F60041C2F2000009
:102E6000C4F200010822022380E80E000021C0F80D
:102E7000EC42C4F8C002C0E906110162FEF7B6F9DF
:102E8000002818BFFDF702FAD4F8C0020021002282
:102E90001823FDF7D1FBD4F8C0028021002258236B
:102EA000FDF7CAFBD4F8C002812100224FF48073E1
:102EB000FDF7C2FB002010BDD0F8C00201F07F0278
:102EC00002EB820200EBC20000F12A02090658BFA1
:102ED00000F5B5721078704780B59446D0F8C002FE
:102EE0001A466346FDF734FC40F200220223C1007B
:102EF000C0F20122042838BF22FA01F3D8B280BD03
:102F000080B5D0F8C002FDF74FFC40F2002202234A
:102F1000C100C0F20122042838BF22FA01F3D8B25E
:102F200080BD0000F0B581B000210022402304469E
:102F300000254026FFF7D0FF0127204680210022F0
:102F40004023C4F85871C4F86461FFF7C5FFD4F892
:102F5000B802A761666284F89C72C4F894526560F6
:102F6000C4F8A45228B1D4F8B40200214268204623
:102F70009047002001B0F0BD90F89C12042904BFD6
:102F800090F89D1280F89C120020704780B590F850
:102F90009C12032905D1D0F8B412C969002918BFC1
:102FA0008847002080BD0000024600201174704751
:102FB00080B5D0F8C002FEF7CBF940F20022022320
:102FC000C100C0F20122042838BF22FA01F3D8B2AE
:102FD00080BD0000B0B500F52A750446284600F013
:102FE0006BF894F8A8020121B4F8AE22C4F8941248
:102FF00000F01F010229C4F8982209D001290DD040
:1030000091B92046294600F07FF80020B0BD00BFEE
:103010002046294600F0DEF90020B0BD20462946B2
:1030200000F07EFA0020B0BD00F08001204600F0E4
:1030300003F80020B0BD000080B5D0F8C002FDF755
:10304000CDFB40F200220223C100C0F2012204287D
:1030500038BF22FA01F3D8B280BD000080B5D0F8A5
:10306000C002FEF791F940F200220223C100C0F233
:103070000122042838BF22FA01F3D8B280BD000033
:10308000014690F89C02042281F89D02002081F8FC
:103090009C22704780B5D0F8C002FDF7DBFB40F200
:1030A00000220223C100C0F20122042838BF22FA04
:1030B00001F3D8B280BD00000A7802704A784270ED
:1030C0004A8842808A888280C988C180704700000F
:1030D00000290EBF0220C0F8B41200207047000083
:1030E00080B5D0F8B4223AB112689047002818BFD2
:1030F0000120400080BD00BF022080BD80B5FFF7E9
:10310000ADFF002080BD0000B0B582B00D4609784B
:10311000044611F060010DD0402902D0202940F072
:103120004D81D4F8B4022946826820469047002099
:1031300002B0B0BD6878092800F24081DFE810F0E5
:103140000A0024003E0130003E0166008A003E0174
:103150003800460094F89C020138022800F22E81C3
:10316000E888022840F02A81D4F8A402032200282B
:1031700008BF0122214641F80C2F20460222FFF70A
:10318000F7FA002002B0B0BD94F89C020138022882
:1031900000F2148168880128C9D1002004E000BF32
:1031A00068880128C3D10120C4F8A40200E100BF4F
:1031B000E888012840F0028194F89C02411E02290F
:1031C0005ED20020214641F8080F5DE0688840F299
:1031D000D815C1B2C2F200050229287080F0EE8035
:1031E00094F89C02032857D0022840F077800029E9
:1031F00000F0DE80032084F89C0220466160FFF727
:103200006FFF022840F0D480D8E000BFA8880028D3
:1032100040F0D480E888002840F0D08068887F287B
:1032200000F2CC8094F89C12032900F0C780C5B24C
:1032300084F89E0220462946FFF7BAFE2046FFF793
:10324000A5FA002D0CBF0120022084F89C0200206A
:1032500002B0B0BD68884FF0FF3101EB10210022B1
:103260000629ADF8062000F2A980DFE801F0054745
:1032700029A7A7555F0000BFD4F8B002026881E01B
:10328000032840F09B80211D20460122FFF770FAA1
:10329000002002B0B0BD00BF002955D060680128F1
:1032A00000F08680C1B22046FFF732FA2978204626
:1032B0006160FFF715FF022840F07A807EE000BFD2
:1032C000C0B2052800F27A80DFE800F004484C50D4
:1032D000545800BFD4F8B002426852E02046802122
:1032E000FFF7AAFE20460021FFF7A6FE2978204618
:1032F000FFF70EFA002002B0B0BD00BF217CD4F869
:10330000B40200290CBF816AC16A0DF1060088472A
:103310000146022015E000BF207C00284ED1D4F8E1
:10332000B402416B0DF1060088472FE0207C002895
:1033300044D1D4F8B402016B0DF106008847014670
:103340000720487023E000BF022084F89C02002080
:1033500060602046FFF7DCF92AE000BFD4F8B00235
:1033600082680EE0D4F8B002C2680AE0D4F8B00275
:10337000026906E0D4F8B002426902E0D4F8B00273
:103380008269DAB1207C0DF1060190470146BDF853
:10339000060048B1EA883AB1904238BF024620465A
:1033A000ADF80620FFF7E4F9E88800287FF4BFAE07
:1033B0002046FFF7EBF9002002B0B0BD2046802187
:1033C000FFF73AFE20460021FFF736FE002002B04C
:1033D000B0BD0000B0B50A460978044611F060019E
:1033E0000CD0402901D0202920D1D4F8B4021146B4
:1033F0008368204698470020B0BD00BF50781179FF
:10340000F0B1012836D0032868D194F89C02032833
:1034100034D15088002873D111F07F0070D0D0884B
:1034200000286DD12046FFF707FE69E02046802185
:10343000FFF702FE20460021FFF7FEFD0020B0BD91
:1034400094F89C02032827D0022808BF5FEA416055
:1034500044D101F07F0000EB800004EB800000F11C
:103460001402090658BF00F5AA7200201060204619
:1034700011464FE094F89C02032839D002282DD140
:1034800048062BD02046FFF7D7FD20468021FFF7C6
:10349000D3FD0020B0BD00BF01F00F0202EB82029D
:1034A00011F0800004EB820214BF9269D2F8582117
:1034B000A2B101F07F0202EB820204EB820202F170
:1034C0001405002808BF02F5AA7548061ED020463C
:1034D000FFF7F2FCD0B1012019E000BF20468021A7
:1034E000FFF7AAFD20460021FFF7A6FD0020B0BD92
:1034F00050880028A2D1480602D02046FFF7D8FB0A
:103500002046FFF743F90020B0BD00BF002028602F
:10351000204629460222FFF72BF90020B0BD00000B
:10352000B0B50D460978044611F0600118BF402976
:1035300012D194F89C020138022803D8A88810F010
:10354000FE0F15D020468021FFF776FD2046002192
:10355000FFF772FD0020B0BD2029EAD0204680216F
:10356000FFF76AFD20460021FFF766FD0BE000BF74
:10357000D4F8B4022946826820469047E988002999
:1035800008BF002802D00020B0BD00BF2046FFF7D2
:10359000FDF80020B0BD00007047000040F2E010D0
:1035A000C2F20000704700002DE9F0410F7802469A
:1035B00091F803E000EB870330F8270047F27066CC
:1035C000BEF1030F20EA060408D80020DFE80EF061
:1035D00002080F0C44F4007408E000BF012006E06C
:1035E00044F4806402E000BF44F4C064002048F268
:1035F0008006CFF6FF7634431C801C8840F60F759A
:1036000025403D432E431E800E7B48F2800C002E49
:103610004AD01C8840F60F652C4048F28005BEF168
:10362000020F08BF05F580752C431C80B2F850408E
:103630000E8902EB07152C4426F00106A4F800645D
:10364000B2F850204C892A4424F00104A2F808441E
:1036500049781A88002902F480414DD039B119887F
:1036600040F60F7211400CF5804211431980198801
:10367000490607D5198840F60F7211400CF1400237
:1036800011431980198840F63F7211400CF1200255
:103690004A40BEF1010F08BF41EA0C021A801988A6
:1036A00043F60F7247E000BF4D78B2F85040002D4E
:1036B0004FEA071646D0C9883244224421F001015E
:1036C000A2F800141988490607D5198840F60F7228
:1036D00011400CF1400211431980198840F63F72E5
:1036E000BEF1010F01EA020126D00CF12002514087
:1036F0001980BDE8F08100BF39B1198840F60F721A
:1037000011400CF58042114319801988490607D5EC
:10371000198840F60F7211400CF1400211431980D4
:10372000198843F60F7211400CF540525140198030
:10373000198840F63F72114041EA0C011980BDE83A
:10374000F08100BF9519CE882C4426F00106A4F81C
:103750000864B2F850E005F20C4434F80E506FF3F0
:103760009F2524F80E5009693F290DD3CE063EF857
:1037700004604FEA51154FF0FF3808BF08EB5115B0
:1037800046EA852112E000BF71B101F001053EF863
:10379000046005EB510146EA81212EF804101988D6
:1037A00049040DD414E000BF3EF8041048F20005AF
:1037B000CFF6FF7529432EF804101988490407D560
:1037C000198840F60F7631400CF580463143198058
:1037D00057B1198843F60F7211400CF50052514051
:1037E0001980BDE8F08100BF118843F60F721140C7
:1037F0000CF5405251401980BDE8F081002070471F
:10380000B0B50C784B78097B024630F824004CF2B6
:10381000800C4CF2800500294FEA44013AD0002B7D
:1038200000F4804040D040B132F8110040F60F73F0
:10383000184040EA0C0022F8110032F8110043F65B
:103840000F7E400640F63F7009D532F8113040F641
:103850000F742340ACF57F54234322F8113032F823
:10386000113040F60F7423402B43ACF5804522F80D
:10387000113032F811301840284322F8110032F884
:103880001100ACF5804300EA0E000343002022F84B
:103890001130B0BDF3B1400640F63F7EEFD5ACF538
:1038A0007F5540F60F70E4E740B132F8110040F662
:1038B0000F73184040EA0C0022F8110032F8110092
:1038C000ACF57F55400640F63F7E43F60F70BCD402
:1038D000C5E700BF400443F60F7ED0D540F60F7019
:1038E000C7E7000000207047002070470146012014
:1038F000A1F8400000220020A1F84020A1F84420B7
:10390000A1F85020704700000146B0F8400044F292
:10391000FF0202400020A1F84020704700207047BD
:1039200080B50A7B12B1002080BD00BF0A784B78B9
:1039300030F822C04FEA4202B3B15FEA4C6348F26A
:10394000A00E0BD530F812C040F60F730CEA030C32
:103950000EF1200343EA0C0320F81230C978012944
:10396000E1D040F63F7110E05FEA4C414BF2800E2F
:1039700009D530F8121040F60F7319400EF5805338
:10398000194320F8121043F60F7130F81230194025
:1039900081EA0E0120F81210002080BD02460B784B
:1039A000487832F823C040F63F71002848F2900072
:1039B00008BF43F60F71CFF6FF7008BF00F57F60B8
:1039C00001EA0C014140002022F82310704700005A
:1039D0002DE9F04F81B04B78012B57D18A690C69E2
:1039E0000B7BA24288BF2246002B48F2800B75D089
:1039F000CB780D6A022B40F0B9800E7840F60F6745
:103A000030F826304FEA460EA54203EA070340F29B
:103A10000B810BF580773B43A5EB020820F81E30A5
:103A2000C1F8208030F81E70B0F8505036017F0683
:103A300000EB060C00F14C810CEB0507A7F8042401
:103A4000D1F814A0170400F0F5820F894FF0FF366B
:103A500000EB470707F5806997B20137C7F34105C7
:103A600006EB5703002D4FEA570700F0CD8156466D
:103A7000009336F8023BCB46012D2BF8043B40F077
:103A8000C781013FD94648F2800BC0E20A7B002A79
:103A900048D0CA78012A00F09D80022A40F0C080F8
:103AA000002B40F08E82B0F850300A7803441201A7
:103AB00003F20447BB5A6FF39F23BB520B693F2BA2
:103AC000C0F03E81DC064FEA5316D45B4FF0FF3561
:103AD00008BF05EB531644EA8626BCE1130400F048
:103AE0006381CB88D1F8148000EB430303F5806930
:103AF00093B201334FF0FF37C3F3410407EB530E8A
:103B0000002C4FEA530300F03C81474637F8025B34
:103B10004E46012C26F8045B40F00681013BB84676
:103B2000B1462EE18A690E69931B38BF00238B6171
:103B3000B0F850700B7807444FEA031307F20C47B4
:103B4000FD5A88BF32466FF39F253F2AFD52C0F0D1
:103B5000BE81D406DC5B4FEA52164FF0FF3508BF3A
:103B600005EB521644EA8622BBE100BFAB1A0F7880
:103B70000B6230F82760B0F850303C014FEA470E36
:103B8000071976063B447DD41704A3F8042400F0FB
:103B900015810F894B6900EB470101F5806491B2F3
:103BA00001314FF0FF32C1F3410502EB510C002D02
:103BB0004FEA510100F0B1811E4636F8022B27462C
:103BC000012D27F8042B40F00181013933463C4692
:103BD000A3E100BF0F698A69D61B38BF002688BFE2
:103BE0003A46002B8E6140F07F81B0F850700B7820
:103BF00007441B0107F20447FE5A3F2A6FF39F2632
:103C0000FE52C0F0A980D4064FEA5216DC5B4FF09A
:103C1000FF3508BF05EB521644EA862645E100BF92
:103C2000012001B0BDE8F08F43EA0B0220F81E200E
:103C3000B0F8502000EB06131A442B04A2F80454E9
:103C400000F0BC800B894A6900EB430101F58063F9
:103C5000A9B201314FF0FF37C1F3410507EB510C19
:103C6000002D4FEA510100F07481164636F8024BE0
:103C70001F46012D27F8044B40F0B280013932462F
:103C80003B4666E11704A3F80C2400F097804F89A7
:103C90004B6900EB470101F5806491B201314FF0AF
:103CA000FF32C1F3410502EB510C002D4FEA5101E7
:103CB00000F069811E4636F8022B2746012D27F8B1
:103CC000042B40F09780013933463C465BE100BF4E
:103CD0006544A5F80C24D1F814A0150400F0FE8169
:103CE0004D8900EB450505F5806995B26E1C4FF0D6
:103CF000FF3505EB5603C6F34105002D4FEA560785
:103D000000F0848056460093634636F802CBCB46DB
:103D1000012D2BF804CB40F08B809C46009B013F8B
:103D2000D94648F2800BC8E1B8F80250022CA9F835
:103D300004501DD109F1080908F10408023B20E0F4
:103D4000002B00F0878003F00106D55B06EB5306DD
:103D500045EA862684E000BF002A00F0A58002F034
:103D60000106DD5B06EB520645EA8626A2E000BFAF
:103D7000B8F8044008F10608A9F8084009F10C0950
:103D8000033BBEF1030F0FD3A8F10807A9F11006FA
:103D900037F8085F043B26F8105F7D88B580BD8842
:103DA0003581FD88B581F3D1B0F8503009780344EE
:103DB00003EB0113A3F804244FEA410E00EB4E007D
:103DC0000BF1300140F63F7299E000BF5A88022D96
:103DD000A28040F09D800834043302399DE000BF8A
:103DE0005488022D9C8040F0AF80083304320239A1
:103DF000AFE000BF5A88022DA28040F0BF80083497
:103E000004330239BFE000BF564601E1564654E193
:103E1000BAF80230022D48F2800BA9F8043040F0C5
:103E2000ED8009F108090AF10406023FEFE000BF46
:103E3000BAF802609C46A9F80460009B022D48F283
:103E4000800B40F0318109F108090AF10406023FB4
:103E500033E100BFD65B48F20005CFF6FF752E4375
:103E6000D653B0F850703F2B074407F20C47BE5AA8
:103E70006FF39F26BE520BD3DC06D45B4FEA53167A
:103E80004FF0FF3508BF05EB531644EA862392E056
:103E9000002B00F08F8003F00106D55B06EB530387
:103EA00045EA83238CE000BFDE5B48F20005CFF6D5
:103EB000FF752E43DE53B0F850703F2A074407F2D7
:103EC0000C47FE5A6FF39F26FE52BFF442AE3AB142
:103ED00002F00106DD5B06EB520245EA822202E0B7
:103EE000DA5B42F40042DA53097843F60F7200EBD2
:103EF000810048F28001CFF6FF7101F5405103883F
:103F00001A4051400180002001B0BDE8F08F00BF91
:103F10009A88063322810C340339BCF1030FFFF475
:103F20004DAFA3F10802A4F1100300BF32F8087FDF
:103F3000043923F8107F57889F8097881F81D7887E
:103F40009F81F3D13AE700BF948806321C810C337D
:103F50000339BCF1030FFFF431AF083A103B00BF47
:103F600032F8087F043923F8107F57889F8097889C
:103F70001F81D7889F81F3D120E700BF9A8806333D
:103F800022810C340339BCF1030FFFF417AFA3F106
:103F90000802A4F1100300BF32F8087F043923F8A7
:103FA000107F57889F8097881F81D7889F81F3D182
:103FB00004E700BFD35B48F20006CFF6FF76334339
:103FC000D353CA69002A8FD00A7844F2400730F8E8
:103FD00022303B40BB4202D0002B7FF485AF520021
:103FE00030F8123040F60F773B4048F28007CFF6AA
:103FF000FF773B43403320F8123075E7BAF80430BE
:104000000AF10606A9F8083009F10C09033F009BE4
:10401000032B0FD3083EA9F1100500BF36F8083F67
:10402000043F25F8103F7388AB80B3882B81F38859
:10403000AB81F3D10AEB020600234E61A04588BF95
:10404000A8EB02030B62B0F8503088BF90460CEB2F
:1040500003025FEA0843A2F80C843FF4AFAE49893B
:104060004FF0FF3300EB410101F580621FFA88F148
:104070000131C1F3410403EB5103002C4FEA51011C
:1040800069D036F8027B1546012C25F8047B03D154
:1040900001392A465FE000BF36F8027B022C978088
:1040A00054D10832023956E0BAF80460033FA9F847
:1040B000086009F10C090AF10606032B0ED3083E2D
:1040C000A9F1100536F8083F043F25F8103F738822
:1040D000AB80B3882B81F388AB81F3D10AEB020666
:1040E00000234E61A04588BFA8EB02030B62B0F825
:1040F000503088BF90460CEB03025FEA0843A2F8F9
:1041000004843FF45BAE09894FF0FF3300EB4101BB
:1041100001F580621FFA88F10131C1F3410403EB1C
:1041200051034FEA510184B336F8027B1546012C46
:1041300025F8047B02D101392A4626E036F8027BB5
:10414000022C97801CD1083202391EE036F8027B1F
:10415000033917810C32032BFFF430AEA6F10803AC
:10416000103A00BF33F8087F043922F8107F5F88C7
:1041700097809F881781DF889781F3D11EE600BF63
:1041800036F8027B033917810C32032BFFF416AE8D
:10419000A6F10803103A00BF33F8087F043922F86B
:1041A000107F5F8897809F881781DF889781F3D180
:1041B00004E6000001460020A1F844004FF43F420D
:1041C0000020A1F84020704740F2B840C2F2000041
:1041D000FCF75CBBB0F844007047000070B500EB22
:1041E0004200022B00F5806441D34FF0FF32C3F34D
:1041F0004105580802EB530C55B1224632F8046BC6
:104200008E46012D2EF8026B08D1013817E000BF51
:104210002246BCF1030F14462AD315E0A288022DD2
:104220004A8005D101F1040E04F10802023806E0CB
:10423000228901F1060E8A8004F10C0203387146CE
:10424000BCF1030F144613D332F8106B043821F875
:10425000086B32F80C6C21F8066C32F8086C21F807
:10426000046C32F8046C21F8026CEDD114468E46D1
:10427000D8071CBF20888EF8000070BD0020704752
:10428000002904BF8021A0F84C10002070470000D6
:10429000B0B5002B3ED000EB420000F5806E581CFC
:1042A0004FF0FF32C0F3410302EB500C4FEA5000D5
:1042B000EBB10A4632F8025B7446012B24F8045B2A
:1042C00004D101381146A64611E000BF4A88022BEE
:1042D000AEF8042004D10EF1080E0431023806E0D5
:1042E0008A880631AEF808200EF10C0E0338BCF1B6
:1042F000030F38BFB0BD0839AEF1100231F8083FE6
:10430000043822F8103F4B8893808B881381CB8828
:104310009381F3D1B0BD0000FEE7000094B0FCF73C
:10432000E5F800240120CDE90F44CDE90D440A90C1
:104330000E904FF4E0104FF48031022513900AA83C
:10434000CDE90244CDE90B14CDE91151FDF7B0F9E7
:1043500020B1EFF3108072B6FEE700BF0F20CDE969
:1043600005054FF48060CDE9080405A802210794F3
:10437000FDF7BEF820B1EFF3108072B6FEE700BF84
:10438000102001900020049001A8FDF72BF828B11F
:10439000EFF3108072B600BFFEE700BFFDF72AFE04
:1043A000FDF700FFFDF7C4FEFEF76AF9FEF774F9AA
:1043B000FCE7000000000000000001020304060703
:1043C0000809010202030405060708090A0B0C0D7F
:1043D0000E0F1010F84300080000002070010000CC
:1043E00028010008D844000870010020880C000053
:1043F000840100080000000032013210150921116B
:10440000014401224A100A05010902A1010901A182
:10441000100805091901290315180F2501950375C1
:1044200001810295017505810120281730093109A4
:10443000381581257F750895038106C0093C05FF65
:10444000090129200E75019502B12275069501B169
:1044500001C013C927140801281B0811041A3D04C0
:104460001A6D041AA5141AD9041BC0FF01411324A4
:10447000F41312013202164083042B571D0201026D
:10448000039913212B1408C12A1B087908811AB536
:104490001001101A01201AF1181A11081AE1081453
:1044A0000902221301011DE03209041D8C030102DF
:1044B000DE160705810304195C091F2422074B0A35
:1044C0000694192F0920301925071E040309041A20
:0844D0000300000000000000E1
:04000005080000ED02
:00000001FF
